{
  "contractName": "Airdrop",
  "abi": [
    {
      "inputs": [
        {
          "internalType": "address",
          "name": "_token",
          "type": "address"
        },
        {
          "internalType": "address[]",
          "name": "_addresses",
          "type": "address[]"
        },
        {
          "internalType": "uint256[]",
          "name": "_amounts",
          "type": "uint256[]"
        }
      ],
      "name": "multiTransferToken",
      "outputs": [],
      "stateMutability": "nonpayable",
      "type": "function"
    },
    {
      "inputs": [
        {
          "internalType": "address payable[]",
          "name": "_addresses",
          "type": "address[]"
        },
        {
          "internalType": "uint256[]",
          "name": "_amounts",
          "type": "uint256[]"
        }
      ],
      "name": "multiTransferETH",
      "outputs": [],
      "stateMutability": "payable",
      "type": "function"
    },
    {
      "inputs": [
        {
          "internalType": "uint256[]",
          "name": "_arr",
          "type": "uint256[]"
        }
      ],
      "name": "getSum",
      "outputs": [
        {
          "internalType": "uint256",
          "name": "sum",
          "type": "uint256"
        }
      ],
      "stateMutability": "pure",
      "type": "function"
    }
  ],
  "bytecode": "0x608060405234801561001057600080fd5b50610bdd806100206000396000f3fe6080604052600436106100345760003560e01c806341ed24a21461003957806377988cf814610062578063ccb8c1e01461007e575b600080fd5b34801561004557600080fd5b50610060600480360381019061005b919061057e565b6100bb565b005b61007c60048036038101906100779190610669565b6102bf565b005b34801561008a57600080fd5b506100a560048036038101906100a091906106ea565b610407565b6040516100b29190610750565b60405180910390f35b818190508484905014610103576040517f08c379a00000000000000000000000000000000000000000000000000000000081526004016100fa906107ee565b60405180910390fd5b600085905060006101148484610407565b9050808273ffffffffffffffffffffffffffffffffffffffff1663dd62ed3e33306040518363ffffffff1660e01b815260040161015292919061081d565b602060405180830381865afa15801561016f573d6000803e3d6000fd5b505050506040513d601f19601f820116820180604052508101906101939190610872565b116101d3576040517f08c379a00000000000000000000000000000000000000000000000000000000081526004016101ca906108eb565b60405180910390fd5b60005b868690508110156102b5578273ffffffffffffffffffffffffffffffffffffffff166323b872dd338989858181106102115761021061090b565b5b9050602002016020810190610226919061093a565b8888868181106102395761023861090b565b5b905060200201356040518463ffffffff1660e01b815260040161025e93929190610967565b6020604051808303816000875af115801561027d573d6000803e3d6000fd5b505050506040513d601f19601f820116820180604052508101906102a191906109d6565b5080806102ad90610a32565b9150506101d6565b5050505050505050565b818190508484905014610307576040517f08c379a00000000000000000000000000000000000000000000000000000000081526004016102fe906107ee565b60405180910390fd5b60006103138383610407565b9050803414610357576040517f08c379a000000000000000000000000000000000000000000000000000000000815260040161034e90610ac6565b60405180910390fd5b60005b858590508110156103ff578585828181106103785761037761090b565b5b905060200201602081019061038d9190610b24565b73ffffffffffffffffffffffffffffffffffffffff166108fc8585848181106103b9576103b861090b565b5b905060200201359081150290604051600060405180830381858888f193505050501580156103eb573d6000803e3d6000fd5b5080806103f790610a32565b91505061035a565b505050505050565b600080600090505b838390508110156104545783838281811061042d5761042c61090b565b5b905060200201358261043f9190610b51565b9150808061044c90610a32565b91505061040f565b5092915050565b600080fd5b600080fd5b600073ffffffffffffffffffffffffffffffffffffffff82169050919050565b600061049082610465565b9050919050565b6104a081610485565b81146104ab57600080fd5b50565b6000813590506104bd81610497565b92915050565b600080fd5b600080fd5b600080fd5b60008083601f8401126104e8576104e76104c3565b5b8235905067ffffffffffffffff811115610505576105046104c8565b5b602083019150836020820283011115610521576105206104cd565b5b9250929050565b60008083601f84011261053e5761053d6104c3565b5b8235905067ffffffffffffffff81111561055b5761055a6104c8565b5b602083019150836020820283011115610577576105766104cd565b5b9250929050565b60008060008060006060868803121561059a5761059961045b565b5b60006105a8888289016104ae565b955050602086013567ffffffffffffffff8111156105c9576105c8610460565b5b6105d5888289016104d2565b9450945050604086013567ffffffffffffffff8111156105f8576105f7610460565b5b61060488828901610528565b92509250509295509295909350565b60008083601f840112610629576106286104c3565b5b8235905067ffffffffffffffff811115610646576106456104c8565b5b602083019150836020820283011115610662576106616104cd565b5b9250929050565b600080600080604085870312156106835761068261045b565b5b600085013567ffffffffffffffff8111156106a1576106a0610460565b5b6106ad87828801610613565b9450945050602085013567ffffffffffffffff8111156106d0576106cf610460565b5b6106dc87828801610528565b925092505092959194509250565b600080602083850312156107015761070061045b565b5b600083013567ffffffffffffffff81111561071f5761071e610460565b5b61072b85828601610528565b92509250509250929050565b6000819050919050565b61074a81610737565b82525050565b60006020820190506107656000830184610741565b92915050565b600082825260208201905092915050565b7f4c656e67746873206f662041646472657373657320616e6420416d6f756e747360008201527f204e4f5420455155414c00000000000000000000000000000000000000000000602082015250565b60006107d8602a8361076b565b91506107e38261077c565b604082019050919050565b60006020820190508181036000830152610807816107cb565b9050919050565b61081781610485565b82525050565b6000604082019050610832600083018561080e565b61083f602083018461080e565b9392505050565b61084f81610737565b811461085a57600080fd5b50565b60008151905061086c81610846565b92915050565b6000602082840312156108885761088761045b565b5b60006108968482850161085d565b91505092915050565b7f4e65656420417070726f766520455243323020746f6b656e0000000000000000600082015250565b60006108d560188361076b565b91506108e08261089f565b602082019050919050565b60006020820190508181036000830152610904816108c8565b9050919050565b7f4e487b7100000000000000000000000000000000000000000000000000000000600052603260045260246000fd5b6000602082840312156109505761094f61045b565b5b600061095e848285016104ae565b91505092915050565b600060608201905061097c600083018661080e565b610989602083018561080e565b6109966040830184610741565b949350505050565b60008115159050919050565b6109b38161099e565b81146109be57600080fd5b50565b6000815190506109d0816109aa565b92915050565b6000602082840312156109ec576109eb61045b565b5b60006109fa848285016109c1565b91505092915050565b7f4e487b7100000000000000000000000000000000000000000000000000000000600052601160045260246000fd5b6000610a3d82610737565b91507fffffffffffffffffffffffffffffffffffffffffffffffffffffffffffffffff8203610a6f57610a6e610a03565b5b600182019050919050565b7f5472616e7366657220616d6f756e74206572726f720000000000000000000000600082015250565b6000610ab060158361076b565b9150610abb82610a7a565b602082019050919050565b60006020820190508181036000830152610adf81610aa3565b9050919050565b6000610af182610465565b9050919050565b610b0181610ae6565b8114610b0c57600080fd5b50565b600081359050610b1e81610af8565b92915050565b600060208284031215610b3a57610b3961045b565b5b6000610b4884828501610b0f565b91505092915050565b6000610b5c82610737565b9150610b6783610737565b9250827fffffffffffffffffffffffffffffffffffffffffffffffffffffffffffffffff03821115610b9c57610b9b610a03565b5b82820190509291505056fea26469706673582212201a36b8825085f3d5362372b330d34c38433702219c9799aedd89ef2cc675d48764736f6c634300080d0033",
  "immutableReferences": {},
  "source": "// SPDX-License-Identifier: MIT\npragma solidity >=0.4.22 <0.9.0;\n\nimport \"@openzeppelin/contracts/token/ERC20/IERC20.sol\"; \n\ncontract Airdrop {\n    function multiTransferToken(\n        address _token,\n        address[] calldata _addresses,\n        uint256[] calldata _amounts\n        ) external {\n        // _addresses_amounts\n        require(_addresses.length == _amounts.length, \"Lengths of Addresses and Amounts NOT EQUAL\");\n        IERC20 token = IERC20(_token); // IERC\n        uint _amountSum = getSum(_amounts); // \n        //  > \n        require(token.allowance(msg.sender, address(this)) > _amountSum, \"Need Approve ERC20 token\");\n        \n        // fortransferFrom\n        for (uint256 i; i < _addresses.length; i++) {\n            token.transferFrom(msg.sender, _addresses[i], _amounts[i]);\n        }\n    }\n\n    function multiTransferETH(\n        address payable[] calldata _addresses,\n        uint256[] calldata _amounts\n    ) public payable {\n        // _addresses_amounts\n        require(_addresses.length == _amounts.length, \"Lengths of Addresses and Amounts NOT EQUAL\");\n        uint _amountSum = getSum(_amounts); // ETH\n        // ETH\n        require(msg.value == _amountSum, \"Transfer amount error\");\n        // fortransferETH\n        for (uint256 i = 0; i < _addresses.length; i++) {\n            _addresses[i].transfer(_amounts[i]);\n        }\n    }\n\n\n    // \n    function getSum(uint256[] calldata _arr) public pure returns(uint sum)\n    {\n        for(uint i = 0; i < _arr.length; i++)\n            sum = sum + _arr[i];\n    }\n}\n\n\n// ERC20\ncontract ERC20 is IERC20 {\n\n    mapping(address => uint256) public override balanceOf;\n\n    mapping(address => mapping(address => uint256)) public override allowance;\n\n    uint256 public override totalSupply;   // \n\n    string public name;   // \n    string public symbol;  // \n    \n    uint8 public decimals = 18; // \n\n    constructor(string memory name_, string memory symbol_){\n        name = name_;\n        symbol = symbol_;\n    }\n\n    // @dev `transfer`\n    function transfer(address recipient, uint amount) external override returns (bool) {\n        balanceOf[msg.sender] -= amount;\n        balanceOf[recipient] += amount;\n        emit Transfer(msg.sender, recipient, amount);\n        return true;\n    }\n\n    // @dev  `approve` , \n    function approve(address spender, uint amount) external override returns (bool) {\n        allowance[msg.sender][spender] = amount;\n        emit Approval(msg.sender, spender, amount);\n        return true;\n    }\n\n    // @dev `transferFrom`\n    function transferFrom(\n        address sender,\n        address recipient,\n        uint amount\n    ) external override returns (bool) {\n        allowance[sender][msg.sender] -= amount;\n        balanceOf[sender] -= amount;\n        balanceOf[recipient] += amount;\n        emit Transfer(sender, recipient, amount);\n        return true;\n    }\n\n    // @dev  `0`  \n    function mint(uint amount) external {\n        balanceOf[msg.sender] += amount;\n        totalSupply += amount;\n        emit Transfer(address(0), msg.sender, amount);\n    }\n\n    // @dev     `0` \n    function burn(uint amount) external {\n        balanceOf[msg.sender] -= amount;\n        totalSupply -= amount;\n        emit Transfer(msg.sender, address(0), amount);\n    }\n\n}\n",
  "sourcePath": "/Users/wangdong//web3/nft-platform-n/Nft Market/Nft/contracts/NftAirDrop.sol",
  "compiler": {
    "name": "solc",
    "version": "0.8.13+commit.abaa5c0e.Emscripten.clang"
  },
  "schemaVersion": "3.4.14",
  "updatedAt": "2023-06-06T13:17:33.851Z",
  "devdoc": {
    "kind": "dev",
    "methods": {},
    "version": 1
  },
  "userdoc": {
    "kind": "user",
    "methods": {},
    "version": 1
  }
}