{
  "contractName": "Airdrop",
  "abi": [
    {
      "inputs": [
        {
          "internalType": "address",
          "name": "_token",
          "type": "address"
        },
        {
          "internalType": "address",
          "name": "_tokenOwner",
          "type": "address"
        },
        {
          "internalType": "address[]",
          "name": "_addresses",
          "type": "address[]"
        },
        {
          "internalType": "uint256[]",
          "name": "_amounts",
          "type": "uint256[]"
        }
      ],
      "name": "multiTransferToken",
      "outputs": [],
      "stateMutability": "nonpayable",
      "type": "function"
    },
    {
      "inputs": [
        {
          "internalType": "address payable[]",
          "name": "_addresses",
          "type": "address[]"
        },
        {
          "internalType": "uint256[]",
          "name": "_amounts",
          "type": "uint256[]"
        }
      ],
      "name": "multiTransferETH",
      "outputs": [],
      "stateMutability": "payable",
      "type": "function",
      "payable": true
    },
    {
      "inputs": [
        {
          "internalType": "uint256[]",
          "name": "_arr",
          "type": "uint256[]"
        }
      ],
      "name": "getSum",
      "outputs": [
        {
          "internalType": "uint256",
          "name": "sum",
          "type": "uint256"
        }
      ],
      "stateMutability": "pure",
      "type": "function",
      "constant": true
    }
  ],
  "bytecode": "0x608060405234801561001057600080fd5b50610bf0806100206000396000f3fe6080604052600436106100345760003560e01c806377988cf8146100395780639bd1fa4714610055578063ccb8c1e01461007e575b600080fd5b610053600480360381019061004e9190610521565b6100bb565b005b34801561006157600080fd5b5061007c60048036038101906100779190610656565b610203565b005b34801561008a57600080fd5b506100a560048036038101906100a091906106fd565b610408565b6040516100b29190610763565b60405180910390f35b818190508484905014610103576040517f08c379a00000000000000000000000000000000000000000000000000000000081526004016100fa90610801565b60405180910390fd5b600061010f8383610408565b9050803414610153576040517f08c379a000000000000000000000000000000000000000000000000000000000815260040161014a9061086d565b60405180910390fd5b60005b858590508110156101fb578585828181106101745761017361088d565b5b905060200201602081019061018991906108fa565b73ffffffffffffffffffffffffffffffffffffffff166108fc8585848181106101b5576101b461088d565b5b905060200201359081150290604051600060405180830381858888f193505050501580156101e7573d6000803e3d6000fd5b5080806101f390610956565b915050610156565b505050505050565b81819050848490501461024b576040517f08c379a000000000000000000000000000000000000000000000000000000000815260040161024290610801565b60405180910390fd5b6000869050600061025c8484610408565b9050808273ffffffffffffffffffffffffffffffffffffffff1663dd62ed3e89306040518363ffffffff1660e01b815260040161029a9291906109ad565b602060405180830381865afa1580156102b7573d6000803e3d6000fd5b505050506040513d601f19601f820116820180604052508101906102db9190610a02565b1161031b576040517f08c379a000000000000000000000000000000000000000000000000000000000815260040161031290610a7b565b60405180910390fd5b60005b868690508110156103fd578273ffffffffffffffffffffffffffffffffffffffff166323b872dd898989858181106103595761035861088d565b5b905060200201602081019061036e9190610a9b565b8888868181106103815761038061088d565b5b905060200201356040518463ffffffff1660e01b81526004016103a693929190610ac8565b6020604051808303816000875af11580156103c5573d6000803e3d6000fd5b505050506040513d601f19601f820116820180604052508101906103e99190610b37565b5080806103f590610956565b91505061031e565b505050505050505050565b600080600090505b838390508110156104555783838281811061042e5761042d61088d565b5b90506020020135826104409190610b64565b9150808061044d90610956565b915050610410565b5092915050565b600080fd5b600080fd5b600080fd5b600080fd5b600080fd5b60008083601f84011261048b5761048a610466565b5b8235905067ffffffffffffffff8111156104a8576104a761046b565b5b6020830191508360208202830111156104c4576104c3610470565b5b9250929050565b60008083601f8401126104e1576104e0610466565b5b8235905067ffffffffffffffff8111156104fe576104fd61046b565b5b60208301915083602082028301111561051a57610519610470565b5b9250929050565b6000806000806040858703121561053b5761053a61045c565b5b600085013567ffffffffffffffff81111561055957610558610461565b5b61056587828801610475565b9450945050602085013567ffffffffffffffff81111561058857610587610461565b5b610594878288016104cb565b925092505092959194509250565b600073ffffffffffffffffffffffffffffffffffffffff82169050919050565b60006105cd826105a2565b9050919050565b6105dd816105c2565b81146105e857600080fd5b50565b6000813590506105fa816105d4565b92915050565b60008083601f84011261061657610615610466565b5b8235905067ffffffffffffffff8111156106335761063261046b565b5b60208301915083602082028301111561064f5761064e610470565b5b9250929050565b600080600080600080608087890312156106735761067261045c565b5b600061068189828a016105eb565b965050602061069289828a016105eb565b955050604087013567ffffffffffffffff8111156106b3576106b2610461565b5b6106bf89828a01610600565b9450945050606087013567ffffffffffffffff8111156106e2576106e1610461565b5b6106ee89828a016104cb565b92509250509295509295509295565b600080602083850312156107145761071361045c565b5b600083013567ffffffffffffffff81111561073257610731610461565b5b61073e858286016104cb565b92509250509250929050565b6000819050919050565b61075d8161074a565b82525050565b60006020820190506107786000830184610754565b92915050565b600082825260208201905092915050565b7f4c656e67746873206f662041646472657373657320616e6420416d6f756e747360008201527f204e4f5420455155414c00000000000000000000000000000000000000000000602082015250565b60006107eb602a8361077e565b91506107f68261078f565b604082019050919050565b6000602082019050818103600083015261081a816107de565b9050919050565b7f5472616e7366657220616d6f756e74206572726f720000000000000000000000600082015250565b600061085760158361077e565b915061086282610821565b602082019050919050565b600060208201905081810360008301526108868161084a565b9050919050565b7f4e487b7100000000000000000000000000000000000000000000000000000000600052603260045260246000fd5b60006108c7826105a2565b9050919050565b6108d7816108bc565b81146108e257600080fd5b50565b6000813590506108f4816108ce565b92915050565b6000602082840312156109105761090f61045c565b5b600061091e848285016108e5565b91505092915050565b7f4e487b7100000000000000000000000000000000000000000000000000000000600052601160045260246000fd5b60006109618261074a565b91507fffffffffffffffffffffffffffffffffffffffffffffffffffffffffffffffff820361099357610992610927565b5b600182019050919050565b6109a7816105c2565b82525050565b60006040820190506109c2600083018561099e565b6109cf602083018461099e565b9392505050565b6109df8161074a565b81146109ea57600080fd5b50565b6000815190506109fc816109d6565b92915050565b600060208284031215610a1857610a1761045c565b5b6000610a26848285016109ed565b91505092915050565b7f4e65656420417070726f766520455243323020746f6b656e0000000000000000600082015250565b6000610a6560188361077e565b9150610a7082610a2f565b602082019050919050565b60006020820190508181036000830152610a9481610a58565b9050919050565b600060208284031215610ab157610ab061045c565b5b6000610abf848285016105eb565b91505092915050565b6000606082019050610add600083018661099e565b610aea602083018561099e565b610af76040830184610754565b949350505050565b60008115159050919050565b610b1481610aff565b8114610b1f57600080fd5b50565b600081519050610b3181610b0b565b92915050565b600060208284031215610b4d57610b4c61045c565b5b6000610b5b84828501610b22565b91505092915050565b6000610b6f8261074a565b9150610b7a8361074a565b9250827fffffffffffffffffffffffffffffffffffffffffffffffffffffffffffffffff03821115610baf57610bae610927565b5b82820190509291505056fea2646970667358221220eb9813c0ec3e8cf0a22c5cd1afdc22143970f5d29e31683527d0664852832e1364736f6c634300080d0033",
  "immutableReferences": {},
  "source": "// SPDX-License-Identifier: MIT\npragma solidity >=0.4.22 <0.9.0;\n\nimport \"@openzeppelin/contracts/token/ERC20/IERC20.sol\"; \n\ncontract Airdrop {\n    function multiTransferToken(\n        address _token,\n        address _tokenOwner,\n        address[] calldata _addresses,\n        uint256[] calldata _amounts\n        ) external {\n        // _addresses_amounts\n        require(_addresses.length == _amounts.length, \"Lengths of Addresses and Amounts NOT EQUAL\");\n        IERC20 token = IERC20(_token); // IERC\n        uint _amountSum = getSum(_amounts); // \n        //  > \n        require(token.allowance(_tokenOwner, address(this)) > _amountSum, \"Need Approve ERC20 token\");\n        \n        // fortransferFrom\n        for (uint256 i; i < _addresses.length; i++) {\n            token.transferFrom(_tokenOwner, _addresses[i], _amounts[i]);\n        }\n    }\n\n    function multiTransferETH(\n        address payable[] calldata _addresses,\n        uint256[] calldata _amounts\n    ) public payable {\n        // _addresses_amounts\n        require(_addresses.length == _amounts.length, \"Lengths of Addresses and Amounts NOT EQUAL\");\n        uint _amountSum = getSum(_amounts); // ETH\n        // ETH\n        require(msg.value == _amountSum, \"Transfer amount error\");\n        // fortransferETH\n        for (uint256 i = 0; i < _addresses.length; i++) {\n            _addresses[i].transfer(_amounts[i]);\n        }\n    }\n\n\n    // \n    function getSum(uint256[] calldata _arr) public pure returns(uint sum)\n    {\n        for(uint i = 0; i < _arr.length; i++)\n            sum = sum + _arr[i];\n    }\n}\n\n\n// ERC20\n",
  "sourcePath": "/Users/wangdong//web3/nft-platform-n/Nft Market/Nft/contracts/NftAirDrop.sol",
  "compiler": {
    "name": "solc",
    "version": "0.8.13+commit.abaa5c0e.Emscripten.clang"
  },
  "schemaVersion": "3.4.14",
  "updatedAt": "2023-06-08T16:24:48.746Z",
  "networkType": "ethereum",
  "devdoc": {
    "kind": "dev",
    "methods": {},
    "version": 1
  },
  "userdoc": {
    "kind": "user",
    "methods": {},
    "version": 1
  }
}