{
  "contractName": "NftBBx",
  "abi": [
    {
      "inputs": [],
      "stateMutability": "nonpayable",
      "type": "constructor"
    },
    {
      "anonymous": false,
      "inputs": [
        {
          "indexed": true,
          "internalType": "address",
          "name": "owner",
          "type": "address"
        },
        {
          "indexed": true,
          "internalType": "address",
          "name": "approved",
          "type": "address"
        },
        {
          "indexed": true,
          "internalType": "uint256",
          "name": "tokenId",
          "type": "uint256"
        }
      ],
      "name": "Approval",
      "type": "event"
    },
    {
      "anonymous": false,
      "inputs": [
        {
          "indexed": true,
          "internalType": "address",
          "name": "owner",
          "type": "address"
        },
        {
          "indexed": true,
          "internalType": "address",
          "name": "operator",
          "type": "address"
        },
        {
          "indexed": false,
          "internalType": "bool",
          "name": "approved",
          "type": "bool"
        }
      ],
      "name": "ApprovalForAll",
      "type": "event"
    },
    {
      "anonymous": false,
      "inputs": [
        {
          "indexed": true,
          "internalType": "address",
          "name": "previousOwner",
          "type": "address"
        },
        {
          "indexed": true,
          "internalType": "address",
          "name": "newOwner",
          "type": "address"
        }
      ],
      "name": "OwnershipTransferred",
      "type": "event"
    },
    {
      "anonymous": false,
      "inputs": [
        {
          "indexed": true,
          "internalType": "address",
          "name": "from",
          "type": "address"
        },
        {
          "indexed": true,
          "internalType": "address",
          "name": "to",
          "type": "address"
        },
        {
          "indexed": true,
          "internalType": "uint256",
          "name": "tokenId",
          "type": "uint256"
        }
      ],
      "name": "Transfer",
      "type": "event"
    },
    {
      "inputs": [],
      "name": "MAX_SUPPLY",
      "outputs": [
        {
          "internalType": "uint256",
          "name": "",
          "type": "uint256"
        }
      ],
      "stateMutability": "view",
      "type": "function",
      "constant": true
    },
    {
      "inputs": [],
      "name": "_revealed",
      "outputs": [
        {
          "internalType": "bool",
          "name": "",
          "type": "bool"
        }
      ],
      "stateMutability": "view",
      "type": "function",
      "constant": true
    },
    {
      "inputs": [
        {
          "internalType": "address",
          "name": "to",
          "type": "address"
        },
        {
          "internalType": "uint256",
          "name": "tokenId",
          "type": "uint256"
        }
      ],
      "name": "approve",
      "outputs": [],
      "stateMutability": "nonpayable",
      "type": "function"
    },
    {
      "inputs": [
        {
          "internalType": "address",
          "name": "owner",
          "type": "address"
        }
      ],
      "name": "balanceOf",
      "outputs": [
        {
          "internalType": "uint256",
          "name": "",
          "type": "uint256"
        }
      ],
      "stateMutability": "view",
      "type": "function",
      "constant": true
    },
    {
      "inputs": [],
      "name": "baseExtension",
      "outputs": [
        {
          "internalType": "string",
          "name": "",
          "type": "string"
        }
      ],
      "stateMutability": "view",
      "type": "function",
      "constant": true
    },
    {
      "inputs": [
        {
          "internalType": "uint256",
          "name": "tokenId",
          "type": "uint256"
        }
      ],
      "name": "getApproved",
      "outputs": [
        {
          "internalType": "address",
          "name": "",
          "type": "address"
        }
      ],
      "stateMutability": "view",
      "type": "function",
      "constant": true
    },
    {
      "inputs": [
        {
          "internalType": "address",
          "name": "owner",
          "type": "address"
        },
        {
          "internalType": "address",
          "name": "operator",
          "type": "address"
        }
      ],
      "name": "isApprovedForAll",
      "outputs": [
        {
          "internalType": "bool",
          "name": "",
          "type": "bool"
        }
      ],
      "stateMutability": "view",
      "type": "function",
      "constant": true
    },
    {
      "inputs": [],
      "name": "maxBalance",
      "outputs": [
        {
          "internalType": "uint256",
          "name": "",
          "type": "uint256"
        }
      ],
      "stateMutability": "view",
      "type": "function",
      "constant": true
    },
    {
      "inputs": [],
      "name": "maxMint",
      "outputs": [
        {
          "internalType": "uint256",
          "name": "",
          "type": "uint256"
        }
      ],
      "stateMutability": "view",
      "type": "function",
      "constant": true
    },
    {
      "inputs": [],
      "name": "mintPrice",
      "outputs": [
        {
          "internalType": "uint256",
          "name": "",
          "type": "uint256"
        }
      ],
      "stateMutability": "view",
      "type": "function",
      "constant": true
    },
    {
      "inputs": [],
      "name": "name",
      "outputs": [
        {
          "internalType": "string",
          "name": "",
          "type": "string"
        }
      ],
      "stateMutability": "view",
      "type": "function",
      "constant": true
    },
    {
      "inputs": [],
      "name": "notRevealedUri",
      "outputs": [
        {
          "internalType": "string",
          "name": "",
          "type": "string"
        }
      ],
      "stateMutability": "view",
      "type": "function",
      "constant": true
    },
    {
      "inputs": [],
      "name": "owner",
      "outputs": [
        {
          "internalType": "address",
          "name": "",
          "type": "address"
        }
      ],
      "stateMutability": "view",
      "type": "function",
      "constant": true
    },
    {
      "inputs": [
        {
          "internalType": "uint256",
          "name": "tokenId",
          "type": "uint256"
        }
      ],
      "name": "ownerOf",
      "outputs": [
        {
          "internalType": "address",
          "name": "",
          "type": "address"
        }
      ],
      "stateMutability": "view",
      "type": "function",
      "constant": true
    },
    {
      "inputs": [],
      "name": "renounceOwnership",
      "outputs": [],
      "stateMutability": "nonpayable",
      "type": "function"
    },
    {
      "inputs": [
        {
          "internalType": "address",
          "name": "from",
          "type": "address"
        },
        {
          "internalType": "address",
          "name": "to",
          "type": "address"
        },
        {
          "internalType": "uint256",
          "name": "tokenId",
          "type": "uint256"
        }
      ],
      "name": "safeTransferFrom",
      "outputs": [],
      "stateMutability": "nonpayable",
      "type": "function"
    },
    {
      "inputs": [
        {
          "internalType": "address",
          "name": "from",
          "type": "address"
        },
        {
          "internalType": "address",
          "name": "to",
          "type": "address"
        },
        {
          "internalType": "uint256",
          "name": "tokenId",
          "type": "uint256"
        },
        {
          "internalType": "bytes",
          "name": "_data",
          "type": "bytes"
        }
      ],
      "name": "safeTransferFrom",
      "outputs": [],
      "stateMutability": "nonpayable",
      "type": "function"
    },
    {
      "inputs": [
        {
          "internalType": "address",
          "name": "operator",
          "type": "address"
        },
        {
          "internalType": "bool",
          "name": "approved",
          "type": "bool"
        }
      ],
      "name": "setApprovalForAll",
      "outputs": [],
      "stateMutability": "nonpayable",
      "type": "function"
    },
    {
      "inputs": [
        {
          "internalType": "bytes4",
          "name": "interfaceId",
          "type": "bytes4"
        }
      ],
      "name": "supportsInterface",
      "outputs": [
        {
          "internalType": "bool",
          "name": "",
          "type": "bool"
        }
      ],
      "stateMutability": "view",
      "type": "function",
      "constant": true
    },
    {
      "inputs": [],
      "name": "symbol",
      "outputs": [
        {
          "internalType": "string",
          "name": "",
          "type": "string"
        }
      ],
      "stateMutability": "view",
      "type": "function",
      "constant": true
    },
    {
      "inputs": [
        {
          "internalType": "uint256",
          "name": "index",
          "type": "uint256"
        }
      ],
      "name": "tokenByIndex",
      "outputs": [
        {
          "internalType": "uint256",
          "name": "",
          "type": "uint256"
        }
      ],
      "stateMutability": "view",
      "type": "function",
      "constant": true
    },
    {
      "inputs": [
        {
          "internalType": "address",
          "name": "owner",
          "type": "address"
        },
        {
          "internalType": "uint256",
          "name": "index",
          "type": "uint256"
        }
      ],
      "name": "tokenOfOwnerByIndex",
      "outputs": [
        {
          "internalType": "uint256",
          "name": "",
          "type": "uint256"
        }
      ],
      "stateMutability": "view",
      "type": "function",
      "constant": true
    },
    {
      "inputs": [],
      "name": "totalSupply",
      "outputs": [
        {
          "internalType": "uint256",
          "name": "",
          "type": "uint256"
        }
      ],
      "stateMutability": "view",
      "type": "function",
      "constant": true
    },
    {
      "inputs": [
        {
          "internalType": "address",
          "name": "from",
          "type": "address"
        },
        {
          "internalType": "address",
          "name": "to",
          "type": "address"
        },
        {
          "internalType": "uint256",
          "name": "tokenId",
          "type": "uint256"
        }
      ],
      "name": "transferFrom",
      "outputs": [],
      "stateMutability": "nonpayable",
      "type": "function"
    },
    {
      "inputs": [
        {
          "internalType": "address",
          "name": "newOwner",
          "type": "address"
        }
      ],
      "name": "transferOwnership",
      "outputs": [],
      "stateMutability": "nonpayable",
      "type": "function"
    },
    {
      "inputs": [
        {
          "internalType": "uint256",
          "name": "tokenQuantity",
          "type": "uint256"
        }
      ],
      "name": "mintBrandBBX",
      "outputs": [],
      "stateMutability": "payable",
      "type": "function",
      "payable": true
    },
    {
      "inputs": [
        {
          "internalType": "uint256",
          "name": "_amount",
          "type": "uint256"
        }
      ],
      "name": "publicMint",
      "outputs": [],
      "stateMutability": "nonpayable",
      "type": "function"
    },
    {
      "inputs": [
        {
          "internalType": "address",
          "name": "to",
          "type": "address"
        }
      ],
      "name": "ownerMint",
      "outputs": [],
      "stateMutability": "nonpayable",
      "type": "function"
    },
    {
      "inputs": [
        {
          "internalType": "uint256",
          "name": "tokenId",
          "type": "uint256"
        }
      ],
      "name": "tokenURI",
      "outputs": [
        {
          "internalType": "string",
          "name": "",
          "type": "string"
        }
      ],
      "stateMutability": "view",
      "type": "function",
      "constant": true
    },
    {
      "inputs": [],
      "name": "flipReveal",
      "outputs": [],
      "stateMutability": "nonpayable",
      "type": "function"
    },
    {
      "inputs": [
        {
          "internalType": "uint256",
          "name": "_mintPrice",
          "type": "uint256"
        }
      ],
      "name": "setMintPrice",
      "outputs": [],
      "stateMutability": "nonpayable",
      "type": "function"
    },
    {
      "inputs": [],
      "name": "setNotRevealedURI",
      "outputs": [],
      "stateMutability": "nonpayable",
      "type": "function"
    },
    {
      "inputs": [
        {
          "internalType": "string",
          "name": "_newBaseURI",
          "type": "string"
        }
      ],
      "name": "setBaseURI",
      "outputs": [],
      "stateMutability": "nonpayable",
      "type": "function"
    },
    {
      "inputs": [
        {
          "internalType": "string",
          "name": "_newBaseExtension",
          "type": "string"
        }
      ],
      "name": "setBaseExtension",
      "outputs": [],
      "stateMutability": "nonpayable",
      "type": "function"
    },
    {
      "inputs": [
        {
          "internalType": "uint256",
          "name": "_maxBalance",
          "type": "uint256"
        }
      ],
      "name": "setMaxBalance",
      "outputs": [],
      "stateMutability": "nonpayable",
      "type": "function"
    },
    {
      "inputs": [
        {
          "internalType": "uint256",
          "name": "_maxMint",
          "type": "uint256"
        }
      ],
      "name": "setMaxMint",
      "outputs": [],
      "stateMutability": "nonpayable",
      "type": "function"
    },
    {
      "inputs": [
        {
          "internalType": "address",
          "name": "to",
          "type": "address"
        }
      ],
      "name": "withdraw",
      "outputs": [],
      "stateMutability": "nonpayable",
      "type": "function"
    }
  ],
  "bytecode": "0x60806040526000600c60006101000a81548160ff02191690831515021790555066b1a2bc2ec50000600d556003600e556003600f556040518060400160405280600581526020017f2e6a736f6e000000000000000000000000000000000000000000000000000000815250601290805190602001906200008192919062000412565b503480156200008f57600080fd5b506040518060400160405280600581526020017f4272616e640000000000000000000000000000000000000000000000000000008152506040518060400160405280600381526020017f424258000000000000000000000000000000000000000000000000000000000081525081600090805190602001906200011492919062000412565b5080600190805190602001906200012d92919062000412565b5050506200015062000144620001ac60201b60201c565b620001b460201b60201c565b620001966040518060400160405280601c81526020017f68747470733a2f2f676174657761792e70696e6174612e636c6f7564000000008152506200027a60201b60201c565b620001a66200032560201b60201c565b620005a9565b600033905090565b6000600a60009054906101000a900473ffffffffffffffffffffffffffffffffffffffff16905081600a60006101000a81548173ffffffffffffffffffffffffffffffffffffffff021916908373ffffffffffffffffffffffffffffffffffffffff1602179055508173ffffffffffffffffffffffffffffffffffffffff168173ffffffffffffffffffffffffffffffffffffffff167f8be0079c531659141344cd1fd0a4f28419497f9722a3daafe3b4186f6b6457e060405160405180910390a35050565b6200028a620001ac60201b60201c565b73ffffffffffffffffffffffffffffffffffffffff16620002b0620003e860201b60201c565b73ffffffffffffffffffffffffffffffffffffffff161462000309576040517f08c379a0000000000000000000000000000000000000000000000000000000008152600401620003009062000523565b60405180910390fd5b80601090805190602001906200032192919062000412565b5050565b62000335620001ac60201b60201c565b73ffffffffffffffffffffffffffffffffffffffff166200035b620003e860201b60201c565b73ffffffffffffffffffffffffffffffffffffffff1614620003b4576040517f08c379a0000000000000000000000000000000000000000000000000000000008152600401620003ab9062000523565b60405180910390fd5b60405180608001604052806050815260200162004c5c6050913960119080519060200190620003e592919062000412565b50565b6000600a60009054906101000a900473ffffffffffffffffffffffffffffffffffffffff16905090565b828054620004209062000574565b90600052602060002090601f01602090048101928262000444576000855562000490565b82601f106200045f57805160ff191683800117855562000490565b8280016001018555821562000490579182015b828111156200048f57825182559160200191906001019062000472565b5b5090506200049f9190620004a3565b5090565b5b80821115620004be576000816000905550600101620004a4565b5090565b600082825260208201905092915050565b7f4f776e61626c653a2063616c6c6572206973206e6f7420746865206f776e6572600082015250565b60006200050b602083620004c2565b91506200051882620004d3565b602082019050919050565b600060208201905081810360008301526200053e81620004fc565b9050919050565b7f4e487b7100000000000000000000000000000000000000000000000000000000600052602260045260246000fd5b600060028204905060018216806200058d57607f821691505b602082108103620005a357620005a262000545565b5b50919050565b6146a380620005b96000396000f3fe60806040526004361061021a5760003560e01c80636817c76c116101235780639d51d9b7116100ab578063da3ef23f1161006f578063da3ef23f146107b0578063e985e9c5146107d9578063ec89d5b114610816578063f2fde38b1461082d578063f4a0a528146108565761021a565b80639d51d9b7146106cd578063a22cb465146106f6578063b88d4fde1461071f578063c668286214610748578063c87b56dd146107735761021a565b806373ad468a116100f257806373ad468a146106055780637501f741146106305780638da5cb5b1461065b57806395d89b411461068657806395f0ebe0146106b15761021a565b80636817c76c1461055b5780636ebeac851461058657806370a08231146105b1578063715018a6146105ee5761021a565b80632f745c59116101a65780634f6ccce7116101755780634f6ccce71461046657806351cff8d9146104a3578063547520fe146104cc57806355f804b3146104f55780636352211e1461051e5761021a565b80632f745c59146103be57806332cb6b0c146103fb5780633b84d9c61461042657806342842e0e1461043d5761021a565b8063095ea7b3116101ed578063095ea7b3146102ef57806318160ddd146103185780631e3bcc8e1461034357806323b872dd1461036c5780632db11544146103955761021a565b806301ffc9a71461021f57806306fdde031461025c578063081812fc14610287578063081c8c44146102c4575b600080fd5b34801561022b57600080fd5b5061024660048036038101906102419190612fce565b61087f565b6040516102539190613016565b60405180910390f35b34801561026857600080fd5b506102716108f9565b60405161027e91906130ca565b60405180910390f35b34801561029357600080fd5b506102ae60048036038101906102a99190613122565b61098b565b6040516102bb9190613190565b60405180910390f35b3480156102d057600080fd5b506102d9610a10565b6040516102e691906130ca565b60405180910390f35b3480156102fb57600080fd5b50610316600480360381019061031191906131d7565b610a9e565b005b34801561032457600080fd5b5061032d610bb5565b60405161033a9190613226565b60405180910390f35b34801561034f57600080fd5b5061036a60048036038101906103659190613241565b610bc2565b005b34801561037857600080fd5b50610393600480360381019061038e919061326e565b610c64565b005b3480156103a157600080fd5b506103bc60048036038101906103b79190613122565b610cc4565b005b3480156103ca57600080fd5b506103e560048036038101906103e091906131d7565b610d09565b6040516103f29190613226565b60405180910390f35b34801561040757600080fd5b50610410610dae565b60405161041d9190613226565b60405180910390f35b34801561043257600080fd5b5061043b610db3565b005b34801561044957600080fd5b50610464600480360381019061045f919061326e565b610e5b565b005b34801561047257600080fd5b5061048d60048036038101906104889190613122565b610e7b565b60405161049a9190613226565b60405180910390f35b3480156104af57600080fd5b506104ca60048036038101906104c59190613241565b610eec565b005b3480156104d857600080fd5b506104f360048036038101906104ee9190613122565b610fb8565b005b34801561050157600080fd5b5061051c600480360381019061051791906133f6565b61103e565b005b34801561052a57600080fd5b5061054560048036038101906105409190613122565b6110d4565b6040516105529190613190565b60405180910390f35b34801561056757600080fd5b50610570611185565b60405161057d9190613226565b60405180910390f35b34801561059257600080fd5b5061059b61118b565b6040516105a89190613016565b60405180910390f35b3480156105bd57600080fd5b506105d860048036038101906105d39190613241565b61119e565b6040516105e59190613226565b60405180910390f35b3480156105fa57600080fd5b50610603611255565b005b34801561061157600080fd5b5061061a6112dd565b6040516106279190613226565b60405180910390f35b34801561063c57600080fd5b506106456112e3565b6040516106529190613226565b60405180910390f35b34801561066757600080fd5b506106706112e9565b60405161067d9190613190565b60405180910390f35b34801561069257600080fd5b5061069b611313565b6040516106a891906130ca565b60405180910390f35b6106cb60048036038101906106c69190613122565b6113a5565b005b3480156106d957600080fd5b506106f460048036038101906106ef9190613122565b6114f4565b005b34801561070257600080fd5b5061071d6004803603810190610718919061346b565b61157a565b005b34801561072b57600080fd5b506107466004803603810190610741919061354c565b611590565b005b34801561075457600080fd5b5061075d6115f2565b60405161076a91906130ca565b60405180910390f35b34801561077f57600080fd5b5061079a60048036038101906107959190613122565b611680565b6040516107a791906130ca565b60405180910390f35b3480156107bc57600080fd5b506107d760048036038101906107d291906133f6565b6118a2565b005b3480156107e557600080fd5b5061080060048036038101906107fb91906135cf565b611938565b60405161080d9190613016565b60405180910390f35b34801561082257600080fd5b5061082b6119cc565b005b34801561083957600080fd5b50610854600480360381019061084f9190613241565b611a79565b005b34801561086257600080fd5b5061087d60048036038101906108789190613122565b611b70565b005b60007f780e9d63000000000000000000000000000000000000000000000000000000007bffffffffffffffffffffffffffffffffffffffffffffffffffffffff1916827bffffffffffffffffffffffffffffffffffffffffffffffffffffffff191614806108f257506108f182611bf6565b5b9050919050565b6060600080546109089061363e565b80601f01602080910402602001604051908101604052809291908181526020018280546109349061363e565b80156109815780601f1061095657610100808354040283529160200191610981565b820191906000526020600020905b81548152906001019060200180831161096457829003601f168201915b5050505050905090565b600061099682611cd8565b6109d5576040517f08c379a00000000000000000000000000000000000000000000000000000000081526004016109cc906136e1565b60405180910390fd5b6004600083815260200190815260200160002060009054906101000a900473ffffffffffffffffffffffffffffffffffffffff169050919050565b60118054610a1d9061363e565b80601f0160208091040260200160405190810160405280929190818152602001828054610a499061363e565b8015610a965780601f10610a6b57610100808354040283529160200191610a96565b820191906000526020600020905b815481529060010190602001808311610a7957829003601f168201915b505050505081565b6000610aa9826110d4565b90508073ffffffffffffffffffffffffffffffffffffffff168373ffffffffffffffffffffffffffffffffffffffff1603610b19576040517f08c379a0000000000000000000000000000000000000000000000000000000008152600401610b1090613773565b60405180910390fd5b8073ffffffffffffffffffffffffffffffffffffffff16610b38611d44565b73ffffffffffffffffffffffffffffffffffffffff161480610b675750610b6681610b61611d44565b611938565b5b610ba6576040517f08c379a0000000000000000000000000000000000000000000000000000000008152600401610b9d90613805565b60405180910390fd5b610bb08383611d4c565b505050565b6000600880549050905090565b610bca611d44565b73ffffffffffffffffffffffffffffffffffffffff16610be86112e9565b73ffffffffffffffffffffffffffffffffffffffff1614610c3e576040517f08c379a0000000000000000000000000000000000000000000000000000000008152600401610c3590613871565b60405180910390fd5b6000610c4a600b611e05565b9050610c568282611e13565b610c60600b611fec565b5050565b610c75610c6f611d44565b82612002565b610cb4576040517f08c379a0000000000000000000000000000000000000000000000000000000008152600401610cab90613903565b60405180910390fd5b610cbf8383836120e0565b505050565b60005b81811015610d05576000610cdb600b611e05565b9050610ce73382611e13565b610cf1600b611fec565b508080610cfd90613952565b915050610cc7565b5050565b6000610d148361119e565b8210610d55576040517f08c379a0000000000000000000000000000000000000000000000000000000008152600401610d4c90613a0c565b60405180910390fd5b600660008473ffffffffffffffffffffffffffffffffffffffff1673ffffffffffffffffffffffffffffffffffffffff168152602001908152602001600020600083815260200190815260200160002054905092915050565b600381565b610dbb611d44565b73ffffffffffffffffffffffffffffffffffffffff16610dd96112e9565b73ffffffffffffffffffffffffffffffffffffffff1614610e2f576040517f08c379a0000000000000000000000000000000000000000000000000000000008152600401610e2690613871565b60405180910390fd5b600c60009054906101000a900460ff1615600c60006101000a81548160ff021916908315150217905550565b610e7683838360405180602001604052806000815250611590565b505050565b6000610e85610bb5565b8210610ec6576040517f08c379a0000000000000000000000000000000000000000000000000000000008152600401610ebd90613a9e565b60405180910390fd5b60088281548110610eda57610ed9613abe565b5b90600052602060002001549050919050565b610ef4611d44565b73ffffffffffffffffffffffffffffffffffffffff16610f126112e9565b73ffffffffffffffffffffffffffffffffffffffff1614610f68576040517f08c379a0000000000000000000000000000000000000000000000000000000008152600401610f5f90613871565b60405180910390fd5b60004790508173ffffffffffffffffffffffffffffffffffffffff166108fc829081150290604051600060405180830381858888f19350505050158015610fb3573d6000803e3d6000fd5b505050565b610fc0611d44565b73ffffffffffffffffffffffffffffffffffffffff16610fde6112e9565b73ffffffffffffffffffffffffffffffffffffffff1614611034576040517f08c379a000000000000000000000000000000000000000000000000000000000815260040161102b90613871565b60405180910390fd5b80600f8190555050565b611046611d44565b73ffffffffffffffffffffffffffffffffffffffff166110646112e9565b73ffffffffffffffffffffffffffffffffffffffff16146110ba576040517f08c379a00000000000000000000000000000000000000000000000000000000081526004016110b190613871565b60405180910390fd5b80601090805190602001906110d0929190612ebf565b5050565b6000806002600084815260200190815260200160002060009054906101000a900473ffffffffffffffffffffffffffffffffffffffff169050600073ffffffffffffffffffffffffffffffffffffffff168173ffffffffffffffffffffffffffffffffffffffff160361117c576040517f08c379a000000000000000000000000000000000000000000000000000000000815260040161117390613b5f565b60405180910390fd5b80915050919050565b600d5481565b600c60009054906101000a900460ff1681565b60008073ffffffffffffffffffffffffffffffffffffffff168273ffffffffffffffffffffffffffffffffffffffff160361120e576040517f08c379a000000000000000000000000000000000000000000000000000000000815260040161120590613bf1565b60405180910390fd5b600360008373ffffffffffffffffffffffffffffffffffffffff1673ffffffffffffffffffffffffffffffffffffffff168152602001908152602001600020549050919050565b61125d611d44565b73ffffffffffffffffffffffffffffffffffffffff1661127b6112e9565b73ffffffffffffffffffffffffffffffffffffffff16146112d1576040517f08c379a00000000000000000000000000000000000000000000000000000000081526004016112c890613871565b60405180910390fd5b6112db6000612346565b565b600e5481565b600f5481565b6000600a60009054906101000a900473ffffffffffffffffffffffffffffffffffffffff16905090565b6060600180546113229061363e565b80601f016020809104026020016040519081016040528092919081815260200182805461134e9061363e565b801561139b5780601f106113705761010080835404028352916020019161139b565b820191906000526020600020905b81548152906001019060200180831161137e57829003601f168201915b5050505050905090565b6003816113b0610bb5565b6113ba9190613c11565b11156113fb576040517f08c379a00000000000000000000000000000000000000000000000000000000081526004016113f290613cb3565b60405180910390fd5b600e54816114083361119e565b6114129190613c11565b1115611453576040517f08c379a000000000000000000000000000000000000000000000000000000000815260040161144a90613d1f565b60405180910390fd5b34600d54826114629190613d3f565b11156114a3576040517f08c379a000000000000000000000000000000000000000000000000000000000815260040161149a90613de5565b60405180910390fd5b600f548111156114e8576040517f08c379a00000000000000000000000000000000000000000000000000000000081526004016114df90613e51565b60405180910390fd5b6114f18161240c565b50565b6114fc611d44565b73ffffffffffffffffffffffffffffffffffffffff1661151a6112e9565b73ffffffffffffffffffffffffffffffffffffffff1614611570576040517f08c379a000000000000000000000000000000000000000000000000000000000815260040161156790613871565b60405180910390fd5b80600e8190555050565b61158c611585611d44565b8383612456565b5050565b6115a161159b611d44565b83612002565b6115e0576040517f08c379a00000000000000000000000000000000000000000000000000000000081526004016115d790613903565b60405180910390fd5b6115ec848484846125c2565b50505050565b601280546115ff9061363e565b80601f016020809104026020016040519081016040528092919081815260200182805461162b9061363e565b80156116785780601f1061164d57610100808354040283529160200191611678565b820191906000526020600020905b81548152906001019060200180831161165b57829003601f168201915b505050505081565b606061168b82611cd8565b6116ca576040517f08c379a00000000000000000000000000000000000000000000000000000000081526004016116c190613ee3565b60405180910390fd5b60001515600c60009054906101000a900460ff1615150361177757601180546116f29061363e565b80601f016020809104026020016040519081016040528092919081815260200182805461171e9061363e565b801561176b5780601f106117405761010080835404028352916020019161176b565b820191906000526020600020905b81548152906001019060200180831161174e57829003601f168201915b5050505050905061189d565b60006013600084815260200190815260200160002080546117979061363e565b80601f01602080910402602001604051908101604052809291908181526020018280546117c39061363e565b80156118105780601f106117e557610100808354040283529160200191611810565b820191906000526020600020905b8154815290600101906020018083116117f357829003601f168201915b50505050509050600061182161261e565b9050600081510361183657819250505061189d565b60008251111561186b578082604051602001611853929190613f3f565b6040516020818303038152906040529250505061189d565b80611875856126b0565b601260405160200161188993929190613ff7565b604051602081830303815290604052925050505b919050565b6118aa611d44565b73ffffffffffffffffffffffffffffffffffffffff166118c86112e9565b73ffffffffffffffffffffffffffffffffffffffff161461191e576040517f08c379a000000000000000000000000000000000000000000000000000000000815260040161191590613871565b60405180910390fd5b8060129080519060200190611934929190612ebf565b5050565b6000600560008473ffffffffffffffffffffffffffffffffffffffff1673ffffffffffffffffffffffffffffffffffffffff16815260200190815260200160002060008373ffffffffffffffffffffffffffffffffffffffff1673ffffffffffffffffffffffffffffffffffffffff16815260200190815260200160002060009054906101000a900460ff16905092915050565b6119d4611d44565b73ffffffffffffffffffffffffffffffffffffffff166119f26112e9565b73ffffffffffffffffffffffffffffffffffffffff1614611a48576040517f08c379a0000000000000000000000000000000000000000000000000000000008152600401611a3f90613871565b60405180910390fd5b60405180608001604052806050815260200161461e6050913960119080519060200190611a76929190612ebf565b50565b611a81611d44565b73ffffffffffffffffffffffffffffffffffffffff16611a9f6112e9565b73ffffffffffffffffffffffffffffffffffffffff1614611af5576040517f08c379a0000000000000000000000000000000000000000000000000000000008152600401611aec90613871565b60405180910390fd5b600073ffffffffffffffffffffffffffffffffffffffff168173ffffffffffffffffffffffffffffffffffffffff1603611b64576040517f08c379a0000000000000000000000000000000000000000000000000000000008152600401611b5b9061409a565b60405180910390fd5b611b6d81612346565b50565b611b78611d44565b73ffffffffffffffffffffffffffffffffffffffff16611b966112e9565b73ffffffffffffffffffffffffffffffffffffffff1614611bec576040517f08c379a0000000000000000000000000000000000000000000000000000000008152600401611be390613871565b60405180910390fd5b80600d8190555050565b60007f80ac58cd000000000000000000000000000000000000000000000000000000007bffffffffffffffffffffffffffffffffffffffffffffffffffffffff1916827bffffffffffffffffffffffffffffffffffffffffffffffffffffffff19161480611cc157507f5b5e139f000000000000000000000000000000000000000000000000000000007bffffffffffffffffffffffffffffffffffffffffffffffffffffffff1916827bffffffffffffffffffffffffffffffffffffffffffffffffffffffff1916145b80611cd15750611cd082612810565b5b9050919050565b60008073ffffffffffffffffffffffffffffffffffffffff166002600084815260200190815260200160002060009054906101000a900473ffffffffffffffffffffffffffffffffffffffff1673ffffffffffffffffffffffffffffffffffffffff1614159050919050565b600033905090565b816004600083815260200190815260200160002060006101000a81548173ffffffffffffffffffffffffffffffffffffffff021916908373ffffffffffffffffffffffffffffffffffffffff160217905550808273ffffffffffffffffffffffffffffffffffffffff16611dbf836110d4565b73ffffffffffffffffffffffffffffffffffffffff167f8c5be1e5ebec7d5bd14f71427d1e84f3dd0314c0f7b2291e5b200ac8c7c3b92560405160405180910390a45050565b600081600001549050919050565b600073ffffffffffffffffffffffffffffffffffffffff168273ffffffffffffffffffffffffffffffffffffffff1603611e82576040517f08c379a0000000000000000000000000000000000000000000000000000000008152600401611e7990614106565b60405180910390fd5b611e8b81611cd8565b15611ecb576040517f08c379a0000000000000000000000000000000000000000000000000000000008152600401611ec290614172565b60405180910390fd5b611ed76000838361287a565b6001600360008473ffffffffffffffffffffffffffffffffffffffff1673ffffffffffffffffffffffffffffffffffffffff1681526020019081526020016000206000828254611f279190613c11565b92505081905550816002600083815260200190815260200160002060006101000a81548173ffffffffffffffffffffffffffffffffffffffff021916908373ffffffffffffffffffffffffffffffffffffffff160217905550808273ffffffffffffffffffffffffffffffffffffffff16600073ffffffffffffffffffffffffffffffffffffffff167fddf252ad1be2c89b69c2b068fc378daa952ba7f163c4a11628f55a4df523b3ef60405160405180910390a4611fe86000838361298c565b5050565b6001816000016000828254019250508190555050565b600061200d82611cd8565b61204c576040517f08c379a000000000000000000000000000000000000000000000000000000000815260040161204390614204565b60405180910390fd5b6000612057836110d4565b90508073ffffffffffffffffffffffffffffffffffffffff168473ffffffffffffffffffffffffffffffffffffffff1614806120c657508373ffffffffffffffffffffffffffffffffffffffff166120ae8461098b565b73ffffffffffffffffffffffffffffffffffffffff16145b806120d757506120d68185611938565b5b91505092915050565b8273ffffffffffffffffffffffffffffffffffffffff16612100826110d4565b73ffffffffffffffffffffffffffffffffffffffff1614612156576040517f08c379a000000000000000000000000000000000000000000000000000000000815260040161214d90614296565b60405180910390fd5b600073ffffffffffffffffffffffffffffffffffffffff168273ffffffffffffffffffffffffffffffffffffffff16036121c5576040517f08c379a00000000000000000000000000000000000000000000000000000000081526004016121bc90614328565b60405180910390fd5b6121d083838361287a565b6121db600082611d4c565b6001600360008573ffffffffffffffffffffffffffffffffffffffff1673ffffffffffffffffffffffffffffffffffffffff168152602001908152602001600020600082825461222b9190614348565b925050819055506001600360008473ffffffffffffffffffffffffffffffffffffffff1673ffffffffffffffffffffffffffffffffffffffff16815260200190815260200160002060008282546122829190613c11565b92505081905550816002600083815260200190815260200160002060006101000a81548173ffffffffffffffffffffffffffffffffffffffff021916908373ffffffffffffffffffffffffffffffffffffffff160217905550808273ffffffffffffffffffffffffffffffffffffffff168473ffffffffffffffffffffffffffffffffffffffff167fddf252ad1be2c89b69c2b068fc378daa952ba7f163c4a11628f55a4df523b3ef60405160405180910390a461234183838361298c565b505050565b6000600a60009054906101000a900473ffffffffffffffffffffffffffffffffffffffff16905081600a60006101000a81548173ffffffffffffffffffffffffffffffffffffffff021916908373ffffffffffffffffffffffffffffffffffffffff1602179055508173ffffffffffffffffffffffffffffffffffffffff168173ffffffffffffffffffffffffffffffffffffffff167f8be0079c531659141344cd1fd0a4f28419497f9722a3daafe3b4186f6b6457e060405160405180910390a35050565b60005b81811015612452576000612421610bb5565b9050600361242d610bb5565b101561243e5761243d3382612991565b5b50808061244a90613952565b91505061240f565b5050565b8173ffffffffffffffffffffffffffffffffffffffff168373ffffffffffffffffffffffffffffffffffffffff16036124c4576040517f08c379a00000000000000000000000000000000000000000000000000000000081526004016124bb906143c8565b60405180910390fd5b80600560008573ffffffffffffffffffffffffffffffffffffffff1673ffffffffffffffffffffffffffffffffffffffff16815260200190815260200160002060008473ffffffffffffffffffffffffffffffffffffffff1673ffffffffffffffffffffffffffffffffffffffff16815260200190815260200160002060006101000a81548160ff0219169083151502179055508173ffffffffffffffffffffffffffffffffffffffff168373ffffffffffffffffffffffffffffffffffffffff167f17307eab39ab6107e8899845ad3d59bd9653f200f220920489ca2b5937696c31836040516125b59190613016565b60405180910390a3505050565b6125cd8484846120e0565b6125d9848484846129af565b612618576040517f08c379a000000000000000000000000000000000000000000000000000000000815260040161260f9061445a565b60405180910390fd5b50505050565b60606010805461262d9061363e565b80601f01602080910402602001604051908101604052809291908181526020018280546126599061363e565b80156126a65780601f1061267b576101008083540402835291602001916126a6565b820191906000526020600020905b81548152906001019060200180831161268957829003601f168201915b5050505050905090565b6060600082036126f7576040518060400160405280600181526020017f3000000000000000000000000000000000000000000000000000000000000000815250905061280b565b600082905060005b6000821461272957808061271290613952565b915050600a8261272291906144a9565b91506126ff565b60008167ffffffffffffffff811115612745576127446132cb565b5b6040519080825280601f01601f1916602001820160405280156127775781602001600182028036833780820191505090505b5090505b60008514612804576001826127909190614348565b9150600a8561279f91906144da565b60306127ab9190613c11565b60f81b8183815181106127c1576127c0613abe565b5b60200101907effffffffffffffffffffffffffffffffffffffffffffffffffffffffffffff1916908160001a905350600a856127fd91906144a9565b945061277b565b8093505050505b919050565b60007f01ffc9a7000000000000000000000000000000000000000000000000000000007bffffffffffffffffffffffffffffffffffffffffffffffffffffffff1916827bffffffffffffffffffffffffffffffffffffffffffffffffffffffff1916149050919050565b612885838383612b36565b600073ffffffffffffffffffffffffffffffffffffffff168373ffffffffffffffffffffffffffffffffffffffff16036128c7576128c281612b3b565b612906565b8173ffffffffffffffffffffffffffffffffffffffff168373ffffffffffffffffffffffffffffffffffffffff1614612905576129048382612b84565b5b5b600073ffffffffffffffffffffffffffffffffffffffff168273ffffffffffffffffffffffffffffffffffffffff16036129485761294381612cf1565b612987565b8273ffffffffffffffffffffffffffffffffffffffff168273ffffffffffffffffffffffffffffffffffffffff1614612986576129858282612dc2565b5b5b505050565b505050565b6129ab828260405180602001604052806000815250612e41565b5050565b60006129d08473ffffffffffffffffffffffffffffffffffffffff16612e9c565b15612b29578373ffffffffffffffffffffffffffffffffffffffff1663150b7a026129f9611d44565b8786866040518563ffffffff1660e01b8152600401612a1b9493929190614560565b6020604051808303816000875af1925050508015612a5757506040513d601f19601f82011682018060405250810190612a5491906145c1565b60015b612ad9573d8060008114612a87576040519150601f19603f3d011682016040523d82523d6000602084013e612a8c565b606091505b506000815103612ad1576040517f08c379a0000000000000000000000000000000000000000000000000000000008152600401612ac89061445a565b60405180910390fd5b805181602001fd5b63150b7a0260e01b7bffffffffffffffffffffffffffffffffffffffffffffffffffffffff1916817bffffffffffffffffffffffffffffffffffffffffffffffffffffffff191614915050612b2e565b600190505b949350505050565b505050565b6008805490506009600083815260200190815260200160002081905550600881908060018154018082558091505060019003906000526020600020016000909190919091505550565b60006001612b918461119e565b612b9b9190614348565b9050600060076000848152602001908152602001600020549050818114612c80576000600660008673ffffffffffffffffffffffffffffffffffffffff1673ffffffffffffffffffffffffffffffffffffffff168152602001908152602001600020600084815260200190815260200160002054905080600660008773ffffffffffffffffffffffffffffffffffffffff1673ffffffffffffffffffffffffffffffffffffffff168152602001908152602001600020600084815260200190815260200160002081905550816007600083815260200190815260200160002081905550505b6007600084815260200190815260200160002060009055600660008573ffffffffffffffffffffffffffffffffffffffff1673ffffffffffffffffffffffffffffffffffffffff16815260200190815260200160002060008381526020019081526020016000206000905550505050565b60006001600880549050612d059190614348565b9050600060096000848152602001908152602001600020549050600060088381548110612d3557612d34613abe565b5b906000526020600020015490508060088381548110612d5757612d56613abe565b5b906000526020600020018190555081600960008381526020019081526020016000208190555060096000858152602001908152602001600020600090556008805480612da657612da56145ee565b5b6001900381819060005260206000200160009055905550505050565b6000612dcd8361119e565b905081600660008573ffffffffffffffffffffffffffffffffffffffff1673ffffffffffffffffffffffffffffffffffffffff168152602001908152602001600020600083815260200190815260200160002081905550806007600084815260200190815260200160002081905550505050565b612e4b8383611e13565b612e5860008484846129af565b612e97576040517f08c379a0000000000000000000000000000000000000000000000000000000008152600401612e8e9061445a565b60405180910390fd5b505050565b6000808273ffffffffffffffffffffffffffffffffffffffff163b119050919050565b828054612ecb9061363e565b90600052602060002090601f016020900481019282612eed5760008555612f34565b82601f10612f0657805160ff1916838001178555612f34565b82800160010185558215612f34579182015b82811115612f33578251825591602001919060010190612f18565b5b509050612f419190612f45565b5090565b5b80821115612f5e576000816000905550600101612f46565b5090565b6000604051905090565b600080fd5b600080fd5b60007fffffffff0000000000000000000000000000000000000000000000000000000082169050919050565b612fab81612f76565b8114612fb657600080fd5b50565b600081359050612fc881612fa2565b92915050565b600060208284031215612fe457612fe3612f6c565b5b6000612ff284828501612fb9565b91505092915050565b60008115159050919050565b61301081612ffb565b82525050565b600060208201905061302b6000830184613007565b92915050565b600081519050919050565b600082825260208201905092915050565b60005b8381101561306b578082015181840152602081019050613050565b8381111561307a576000848401525b50505050565b6000601f19601f8301169050919050565b600061309c82613031565b6130a6818561303c565b93506130b681856020860161304d565b6130bf81613080565b840191505092915050565b600060208201905081810360008301526130e48184613091565b905092915050565b6000819050919050565b6130ff816130ec565b811461310a57600080fd5b50565b60008135905061311c816130f6565b92915050565b60006020828403121561313857613137612f6c565b5b60006131468482850161310d565b91505092915050565b600073ffffffffffffffffffffffffffffffffffffffff82169050919050565b600061317a8261314f565b9050919050565b61318a8161316f565b82525050565b60006020820190506131a56000830184613181565b92915050565b6131b48161316f565b81146131bf57600080fd5b50565b6000813590506131d1816131ab565b92915050565b600080604083850312156131ee576131ed612f6c565b5b60006131fc858286016131c2565b925050602061320d8582860161310d565b9150509250929050565b613220816130ec565b82525050565b600060208201905061323b6000830184613217565b92915050565b60006020828403121561325757613256612f6c565b5b6000613265848285016131c2565b91505092915050565b60008060006060848603121561328757613286612f6c565b5b6000613295868287016131c2565b93505060206132a6868287016131c2565b92505060406132b78682870161310d565b9150509250925092565b600080fd5b600080fd5b7f4e487b7100000000000000000000000000000000000000000000000000000000600052604160045260246000fd5b61330382613080565b810181811067ffffffffffffffff82111715613322576133216132cb565b5b80604052505050565b6000613335612f62565b905061334182826132fa565b919050565b600067ffffffffffffffff821115613361576133606132cb565b5b61336a82613080565b9050602081019050919050565b82818337600083830152505050565b600061339961339484613346565b61332b565b9050828152602081018484840111156133b5576133b46132c6565b5b6133c0848285613377565b509392505050565b600082601f8301126133dd576133dc6132c1565b5b81356133ed848260208601613386565b91505092915050565b60006020828403121561340c5761340b612f6c565b5b600082013567ffffffffffffffff81111561342a57613429612f71565b5b613436848285016133c8565b91505092915050565b61344881612ffb565b811461345357600080fd5b50565b6000813590506134658161343f565b92915050565b6000806040838503121561348257613481612f6c565b5b6000613490858286016131c2565b92505060206134a185828601613456565b9150509250929050565b600067ffffffffffffffff8211156134c6576134c56132cb565b5b6134cf82613080565b9050602081019050919050565b60006134ef6134ea846134ab565b61332b565b90508281526020810184848401111561350b5761350a6132c6565b5b613516848285613377565b509392505050565b600082601f830112613533576135326132c1565b5b81356135438482602086016134dc565b91505092915050565b6000806000806080858703121561356657613565612f6c565b5b6000613574878288016131c2565b9450506020613585878288016131c2565b93505060406135968782880161310d565b925050606085013567ffffffffffffffff8111156135b7576135b6612f71565b5b6135c38782880161351e565b91505092959194509250565b600080604083850312156135e6576135e5612f6c565b5b60006135f4858286016131c2565b9250506020613605858286016131c2565b9150509250929050565b7f4e487b7100000000000000000000000000000000000000000000000000000000600052602260045260246000fd5b6000600282049050600182168061365657607f821691505b6020821081036136695761366861360f565b5b50919050565b7f4552433732313a20617070726f76656420717565727920666f72206e6f6e657860008201527f697374656e7420746f6b656e0000000000000000000000000000000000000000602082015250565b60006136cb602c8361303c565b91506136d68261366f565b604082019050919050565b600060208201905081810360008301526136fa816136be565b9050919050565b7f4552433732313a20617070726f76616c20746f2063757272656e74206f776e6560008201527f7200000000000000000000000000000000000000000000000000000000000000602082015250565b600061375d60218361303c565b915061376882613701565b604082019050919050565b6000602082019050818103600083015261378c81613750565b9050919050565b7f4552433732313a20617070726f76652063616c6c6572206973206e6f74206f7760008201527f6e6572206e6f7220617070726f76656420666f7220616c6c0000000000000000602082015250565b60006137ef60388361303c565b91506137fa82613793565b604082019050919050565b6000602082019050818103600083015261381e816137e2565b9050919050565b7f4f776e61626c653a2063616c6c6572206973206e6f7420746865206f776e6572600082015250565b600061385b60208361303c565b915061386682613825565b602082019050919050565b6000602082019050818103600083015261388a8161384e565b9050919050565b7f4552433732313a207472616e736665722063616c6c6572206973206e6f74206f60008201527f776e6572206e6f7220617070726f766564000000000000000000000000000000602082015250565b60006138ed60318361303c565b91506138f882613891565b604082019050919050565b6000602082019050818103600083015261391c816138e0565b9050919050565b7f4e487b7100000000000000000000000000000000000000000000000000000000600052601160045260246000fd5b600061395d826130ec565b91507fffffffffffffffffffffffffffffffffffffffffffffffffffffffffffffffff820361398f5761398e613923565b5b600182019050919050565b7f455243373231456e756d657261626c653a206f776e657220696e646578206f7560008201527f74206f6620626f756e6473000000000000000000000000000000000000000000602082015250565b60006139f6602b8361303c565b9150613a018261399a565b604082019050919050565b60006020820190508181036000830152613a25816139e9565b9050919050565b7f455243373231456e756d657261626c653a20676c6f62616c20696e646578206f60008201527f7574206f6620626f756e64730000000000000000000000000000000000000000602082015250565b6000613a88602c8361303c565b9150613a9382613a2c565b604082019050919050565b60006020820190508181036000830152613ab781613a7b565b9050919050565b7f4e487b7100000000000000000000000000000000000000000000000000000000600052603260045260246000fd5b7f4552433732313a206f776e657220717565727920666f72206e6f6e657869737460008201527f656e7420746f6b656e0000000000000000000000000000000000000000000000602082015250565b6000613b4960298361303c565b9150613b5482613aed565b604082019050919050565b60006020820190508181036000830152613b7881613b3c565b9050919050565b7f4552433732313a2062616c616e636520717565727920666f7220746865207a6560008201527f726f206164647265737300000000000000000000000000000000000000000000602082015250565b6000613bdb602a8361303c565b9150613be682613b7f565b604082019050919050565b60006020820190508181036000830152613c0a81613bce565b9050919050565b6000613c1c826130ec565b9150613c27836130ec565b9250827fffffffffffffffffffffffffffffffffffffffffffffffffffffffffffffffff03821115613c5c57613c5b613923565b5b828201905092915050565b7f53616c6520776f756c6420657863656564206d617820737570706c7900000000600082015250565b6000613c9d601c8361303c565b9150613ca882613c67565b602082019050919050565b60006020820190508181036000830152613ccc81613c90565b9050919050565b7f53616c6520776f756c6420657863656564206d61782062616c616e6365000000600082015250565b6000613d09601d8361303c565b9150613d1482613cd3565b602082019050919050565b60006020820190508181036000830152613d3881613cfc565b9050919050565b6000613d4a826130ec565b9150613d55836130ec565b9250817fffffffffffffffffffffffffffffffffffffffffffffffffffffffffffffffff0483118215151615613d8e57613d8d613923565b5b828202905092915050565b7f4e6f7420656e6f7567682065746865722073656e740000000000000000000000600082015250565b6000613dcf60158361303c565b9150613dda82613d99565b602082019050919050565b60006020820190508181036000830152613dfe81613dc2565b9050919050565b7f43616e206f6e6c79206d696e74203120746f6b656e7320617420612074696d65600082015250565b6000613e3b60208361303c565b9150613e4682613e05565b602082019050919050565b60006020820190508181036000830152613e6a81613e2e565b9050919050565b7f4552433732314d657461646174613a2055524920717565727920666f72206e6f60008201527f6e6578697374656e7420746f6b656e0000000000000000000000000000000000602082015250565b6000613ecd602f8361303c565b9150613ed882613e71565b604082019050919050565b60006020820190508181036000830152613efc81613ec0565b9050919050565b600081905092915050565b6000613f1982613031565b613f238185613f03565b9350613f3381856020860161304d565b80840191505092915050565b6000613f4b8285613f0e565b9150613f578284613f0e565b91508190509392505050565b60008190508160005260206000209050919050565b60008154613f858161363e565b613f8f8186613f03565b94506001821660008114613faa5760018114613fbb57613fee565b60ff19831686528186019350613fee565b613fc485613f63565b60005b83811015613fe657815481890152600182019150602081019050613fc7565b838801955050505b50505092915050565b60006140038286613f0e565b915061400f8285613f0e565b915061401b8284613f78565b9150819050949350505050565b7f4f776e61626c653a206e6577206f776e657220697320746865207a65726f206160008201527f6464726573730000000000000000000000000000000000000000000000000000602082015250565b600061408460268361303c565b915061408f82614028565b604082019050919050565b600060208201905081810360008301526140b381614077565b9050919050565b7f4552433732313a206d696e7420746f20746865207a65726f2061646472657373600082015250565b60006140f060208361303c565b91506140fb826140ba565b602082019050919050565b6000602082019050818103600083015261411f816140e3565b9050919050565b7f4552433732313a20746f6b656e20616c7265616479206d696e74656400000000600082015250565b600061415c601c8361303c565b915061416782614126565b602082019050919050565b6000602082019050818103600083015261418b8161414f565b9050919050565b7f4552433732313a206f70657261746f7220717565727920666f72206e6f6e657860008201527f697374656e7420746f6b656e0000000000000000000000000000000000000000602082015250565b60006141ee602c8361303c565b91506141f982614192565b604082019050919050565b6000602082019050818103600083015261421d816141e1565b9050919050565b7f4552433732313a207472616e736665722066726f6d20696e636f72726563742060008201527f6f776e6572000000000000000000000000000000000000000000000000000000602082015250565b600061428060258361303c565b915061428b82614224565b604082019050919050565b600060208201905081810360008301526142af81614273565b9050919050565b7f4552433732313a207472616e7366657220746f20746865207a65726f2061646460008201527f7265737300000000000000000000000000000000000000000000000000000000602082015250565b600061431260248361303c565b915061431d826142b6565b604082019050919050565b6000602082019050818103600083015261434181614305565b9050919050565b6000614353826130ec565b915061435e836130ec565b92508282101561437157614370613923565b5b828203905092915050565b7f4552433732313a20617070726f766520746f2063616c6c657200000000000000600082015250565b60006143b260198361303c565b91506143bd8261437c565b602082019050919050565b600060208201905081810360008301526143e1816143a5565b9050919050565b7f4552433732313a207472616e7366657220746f206e6f6e20455243373231526560008201527f63656976657220696d706c656d656e7465720000000000000000000000000000602082015250565b600061444460328361303c565b915061444f826143e8565b604082019050919050565b6000602082019050818103600083015261447381614437565b9050919050565b7f4e487b7100000000000000000000000000000000000000000000000000000000600052601260045260246000fd5b60006144b4826130ec565b91506144bf836130ec565b9250826144cf576144ce61447a565b5b828204905092915050565b60006144e5826130ec565b91506144f0836130ec565b925082614500576144ff61447a565b5b828206905092915050565b600081519050919050565b600082825260208201905092915050565b60006145328261450b565b61453c8185614516565b935061454c81856020860161304d565b61455581613080565b840191505092915050565b60006080820190506145756000830187613181565b6145826020830186613181565b61458f6040830185613217565b81810360608301526145a18184614527565b905095945050505050565b6000815190506145bb81612fa2565b92915050565b6000602082840312156145d7576145d6612f6c565b5b60006145e5848285016145ac565b91505092915050565b7f4e487b7100000000000000000000000000000000000000000000000000000000600052603160045260246000fdfe68747470733a2f2f676174657761792e70696e6174612e636c6f75642f697066732f516d5a733969514d566f6e57754c7a4b3753463847787a776b77424647374674526a7841616a33686a6e78657741a26469706673582212207645540533196eb72d274a87f9482a0bcce5bd1e472fca73a45865146358e7df64736f6c634300080d003368747470733a2f2f676174657761792e70696e6174612e636c6f75642f697066732f516d5a733969514d566f6e57754c7a4b3753463847787a776b77424647374674526a7841616a33686a6e78657741",
  "immutableReferences": {},
  "source": "// Contract based on https://docs.openzeppelin.com/contracts/3.x/erc721\n// SPDX-License-Identifier: MIT\npragma solidity >=0.4.22 <0.9.0;\n\nimport \"@openzeppelin/contracts/token/ERC721/extensions/ERC721Enumerable.sol\";\nimport \"@openzeppelin/contracts/access/Ownable.sol\";\nimport \"@openzeppelin/contracts/utils/Counters.sol\";\nimport \"@openzeppelin/contracts/utils/Strings.sol\";\n\ncontract NftBBx is ERC721Enumerable, Ownable {\n    using Counters for Counters.Counter;\n    Counters.Counter private _tokenIds;\n    using Strings for uint256;\n\n    bool public _revealed = false;\n\n    // Constants\n    uint256 public constant MAX_SUPPLY = 3;\n    uint256 public mintPrice = 0.05 ether;\n    uint256 public maxBalance = 3;\n    uint256 public maxMint = 3;\n\n    string baseURI;\n    string public notRevealedUri;\n    string public baseExtension = \".json\";\n\n    mapping(uint256 => string) private _tokenURIs;\n\n    constructor()\n        ERC721(\"Brand\", \"BBX\")\n    {\n        setBaseURI(\"https://gateway.pinata.cloud\");\n        setNotRevealedURI();\n    }\n\n    function mintBrandBBX(uint256 tokenQuantity) public payable {\n        require(\n            totalSupply() + tokenQuantity <= MAX_SUPPLY,\n            \"Sale would exceed max supply\"\n        );\n        require(\n            balanceOf(msg.sender) + tokenQuantity <= maxBalance,\n            \"Sale would exceed max balance\"\n        );\n        require(\n            tokenQuantity * mintPrice <= msg.value,\n            \"Not enough ether sent\"\n        );\n        require(tokenQuantity <= maxMint, \"Can only mint 1 tokens at a time\");\n\n        _mintBrandBBX(tokenQuantity);\n    }\n\n    function _mintBrandBBX(uint256 tokenQuantity) internal {\n        for (uint256 i = 0; i < tokenQuantity; i++) {\n            uint256 mintIndex = totalSupply();\n            if (totalSupply() < MAX_SUPPLY) {\n                _safeMint(msg.sender, mintIndex);\n            }\n        }\n    }\n\n    function publicMint(uint256 _amount) external{\n        for(uint256 i; i<_amount; i++){\n            uint256 tokenId = _tokenIds.current();\n            _mint(msg.sender, tokenId);\n            _tokenIds.increment();\n        }\n    }\n\n    function ownerMint(address to) public onlyOwner{\n        uint256 tokenId = _tokenIds.current();\n        _mint(to, tokenId);\n\n        _tokenIds.increment();\n    }\n\n    function tokenURI(uint256 tokenId)\n        public\n        view\n        virtual\n        override\n        returns (string memory)\n    {\n        require(\n            _exists(tokenId),\n            \"ERC721Metadata: URI query for nonexistent token\"\n        );\n\n        if (_revealed == false) {\n            return notRevealedUri;\n        }\n\n        string memory _tokenURI = _tokenURIs[tokenId];\n        string memory base = _baseURI();\n\n        // If there is no base URI, return the token URI.\n        if (bytes(base).length == 0) {\n            return _tokenURI;\n        }\n        // If both are set, concatenate the baseURI and tokenURI (via abi.encodePacked).\n        if (bytes(_tokenURI).length > 0) {\n            return string(abi.encodePacked(base, _tokenURI));\n        }\n        // If there is a baseURI but no tokenURI, concatenate the tokenID to the baseURI.\n        return\n            string(abi.encodePacked(base, tokenId.toString(), baseExtension));\n    }\n\n    // internal\n    function _baseURI() internal view virtual override returns (string memory) {\n        return baseURI;\n    }\n\n    function flipReveal() public onlyOwner {\n        _revealed = !_revealed;\n    }\n\n    function setMintPrice(uint256 _mintPrice) public onlyOwner {\n        mintPrice = _mintPrice;\n    }\n\n    function setNotRevealedURI() public onlyOwner {\n        notRevealedUri = \"https://gateway.pinata.cloud/ipfs/QmZs9iQMVonWuLzK7SF8GxzwkwBFG7FtRjxAaj3hjnxewA\";\n    }\n\n    function setBaseURI(string memory _newBaseURI) public onlyOwner {\n        baseURI = _newBaseURI;\n    }\n\n    function setBaseExtension(string memory _newBaseExtension)\n        public\n        onlyOwner\n    {\n        baseExtension = _newBaseExtension;\n    }\n\n    function setMaxBalance(uint256 _maxBalance) public onlyOwner {\n        maxBalance = _maxBalance;\n    }\n\n    function setMaxMint(uint256 _maxMint) public onlyOwner {\n        maxMint = _maxMint;\n    }\n\n    function withdraw(address to) public onlyOwner {\n        uint256 balance = address(this).balance;\n        payable(to).transfer(balance);\n    }\n    \n}",
  "sourcePath": "/Users/wangdong//web3/nft-platform-n/Nft Market/Nft/contracts/NFTBBx.sol",
  "compiler": {
    "name": "solc",
    "version": "0.8.13+commit.abaa5c0e.Emscripten.clang"
  },
  "schemaVersion": "3.4.14",
  "updatedAt": "2023-06-08T16:24:49.240Z",
  "networkType": "ethereum",
  "devdoc": {
    "kind": "dev",
    "methods": {
      "approve(address,uint256)": {
        "details": "See {IERC721-approve}."
      },
      "balanceOf(address)": {
        "details": "See {IERC721-balanceOf}."
      },
      "getApproved(uint256)": {
        "details": "See {IERC721-getApproved}."
      },
      "isApprovedForAll(address,address)": {
        "details": "See {IERC721-isApprovedForAll}."
      },
      "name()": {
        "details": "See {IERC721Metadata-name}."
      },
      "owner()": {
        "details": "Returns the address of the current owner."
      },
      "ownerOf(uint256)": {
        "details": "See {IERC721-ownerOf}."
      },
      "renounceOwnership()": {
        "details": "Leaves the contract without owner. It will not be possible to call `onlyOwner` functions anymore. Can only be called by the current owner. NOTE: Renouncing ownership will leave the contract without an owner, thereby removing any functionality that is only available to the owner."
      },
      "safeTransferFrom(address,address,uint256)": {
        "details": "See {IERC721-safeTransferFrom}."
      },
      "safeTransferFrom(address,address,uint256,bytes)": {
        "details": "See {IERC721-safeTransferFrom}."
      },
      "setApprovalForAll(address,bool)": {
        "details": "See {IERC721-setApprovalForAll}."
      },
      "supportsInterface(bytes4)": {
        "details": "See {IERC165-supportsInterface}."
      },
      "symbol()": {
        "details": "See {IERC721Metadata-symbol}."
      },
      "tokenByIndex(uint256)": {
        "details": "See {IERC721Enumerable-tokenByIndex}."
      },
      "tokenOfOwnerByIndex(address,uint256)": {
        "details": "See {IERC721Enumerable-tokenOfOwnerByIndex}."
      },
      "tokenURI(uint256)": {
        "details": "See {IERC721Metadata-tokenURI}."
      },
      "totalSupply()": {
        "details": "See {IERC721Enumerable-totalSupply}."
      },
      "transferFrom(address,address,uint256)": {
        "details": "See {IERC721-transferFrom}."
      },
      "transferOwnership(address)": {
        "details": "Transfers ownership of the contract to a new account (`newOwner`). Can only be called by the current owner."
      }
    },
    "version": 1
  },
  "userdoc": {
    "kind": "user",
    "methods": {},
    "version": 1
  }
}