{
  "contractName": "NftMarket",
  "abi": [
    {
      "inputs": [],
      "stateMutability": "nonpayable",
      "type": "constructor"
    },
    {
      "anonymous": false,
      "inputs": [
        {
          "indexed": true,
          "internalType": "address",
          "name": "owner",
          "type": "address"
        },
        {
          "indexed": true,
          "internalType": "address",
          "name": "approved",
          "type": "address"
        },
        {
          "indexed": true,
          "internalType": "uint256",
          "name": "tokenId",
          "type": "uint256"
        }
      ],
      "name": "Approval",
      "type": "event"
    },
    {
      "anonymous": false,
      "inputs": [
        {
          "indexed": true,
          "internalType": "address",
          "name": "owner",
          "type": "address"
        },
        {
          "indexed": true,
          "internalType": "address",
          "name": "operator",
          "type": "address"
        },
        {
          "indexed": false,
          "internalType": "bool",
          "name": "approved",
          "type": "bool"
        }
      ],
      "name": "ApprovalForAll",
      "type": "event"
    },
    {
      "anonymous": false,
      "inputs": [
        {
          "indexed": false,
          "internalType": "uint256",
          "name": "tokenId",
          "type": "uint256"
        },
        {
          "indexed": false,
          "internalType": "uint256",
          "name": "price",
          "type": "uint256"
        },
        {
          "indexed": false,
          "internalType": "address",
          "name": "creator",
          "type": "address"
        },
        {
          "indexed": false,
          "internalType": "bool",
          "name": "isListed",
          "type": "bool"
        }
      ],
      "name": "NftItemCreated",
      "type": "event"
    },
    {
      "anonymous": false,
      "inputs": [
        {
          "indexed": true,
          "internalType": "address",
          "name": "previousOwner",
          "type": "address"
        },
        {
          "indexed": true,
          "internalType": "address",
          "name": "newOwner",
          "type": "address"
        }
      ],
      "name": "OwnershipTransferred",
      "type": "event"
    },
    {
      "anonymous": false,
      "inputs": [
        {
          "indexed": true,
          "internalType": "address",
          "name": "from",
          "type": "address"
        },
        {
          "indexed": true,
          "internalType": "address",
          "name": "to",
          "type": "address"
        },
        {
          "indexed": true,
          "internalType": "uint256",
          "name": "tokenId",
          "type": "uint256"
        }
      ],
      "name": "Transfer",
      "type": "event"
    },
    {
      "inputs": [
        {
          "internalType": "address",
          "name": "to",
          "type": "address"
        },
        {
          "internalType": "uint256",
          "name": "tokenId",
          "type": "uint256"
        }
      ],
      "name": "approve",
      "outputs": [],
      "stateMutability": "nonpayable",
      "type": "function"
    },
    {
      "inputs": [
        {
          "internalType": "address",
          "name": "owner",
          "type": "address"
        }
      ],
      "name": "balanceOf",
      "outputs": [
        {
          "internalType": "uint256",
          "name": "",
          "type": "uint256"
        }
      ],
      "stateMutability": "view",
      "type": "function",
      "constant": true
    },
    {
      "inputs": [
        {
          "internalType": "uint256",
          "name": "tokenId",
          "type": "uint256"
        }
      ],
      "name": "getApproved",
      "outputs": [
        {
          "internalType": "address",
          "name": "",
          "type": "address"
        }
      ],
      "stateMutability": "view",
      "type": "function",
      "constant": true
    },
    {
      "inputs": [
        {
          "internalType": "address",
          "name": "owner",
          "type": "address"
        },
        {
          "internalType": "address",
          "name": "operator",
          "type": "address"
        }
      ],
      "name": "isApprovedForAll",
      "outputs": [
        {
          "internalType": "bool",
          "name": "",
          "type": "bool"
        }
      ],
      "stateMutability": "view",
      "type": "function",
      "constant": true
    },
    {
      "inputs": [],
      "name": "listingPrice",
      "outputs": [
        {
          "internalType": "uint256",
          "name": "",
          "type": "uint256"
        }
      ],
      "stateMutability": "view",
      "type": "function",
      "constant": true
    },
    {
      "inputs": [],
      "name": "name",
      "outputs": [
        {
          "internalType": "string",
          "name": "",
          "type": "string"
        }
      ],
      "stateMutability": "view",
      "type": "function",
      "constant": true
    },
    {
      "inputs": [],
      "name": "owner",
      "outputs": [
        {
          "internalType": "address",
          "name": "",
          "type": "address"
        }
      ],
      "stateMutability": "view",
      "type": "function",
      "constant": true
    },
    {
      "inputs": [
        {
          "internalType": "uint256",
          "name": "tokenId",
          "type": "uint256"
        }
      ],
      "name": "ownerOf",
      "outputs": [
        {
          "internalType": "address",
          "name": "",
          "type": "address"
        }
      ],
      "stateMutability": "view",
      "type": "function",
      "constant": true
    },
    {
      "inputs": [],
      "name": "renounceOwnership",
      "outputs": [],
      "stateMutability": "nonpayable",
      "type": "function"
    },
    {
      "inputs": [
        {
          "internalType": "address",
          "name": "from",
          "type": "address"
        },
        {
          "internalType": "address",
          "name": "to",
          "type": "address"
        },
        {
          "internalType": "uint256",
          "name": "tokenId",
          "type": "uint256"
        }
      ],
      "name": "safeTransferFrom",
      "outputs": [],
      "stateMutability": "nonpayable",
      "type": "function"
    },
    {
      "inputs": [
        {
          "internalType": "address",
          "name": "from",
          "type": "address"
        },
        {
          "internalType": "address",
          "name": "to",
          "type": "address"
        },
        {
          "internalType": "uint256",
          "name": "tokenId",
          "type": "uint256"
        },
        {
          "internalType": "bytes",
          "name": "_data",
          "type": "bytes"
        }
      ],
      "name": "safeTransferFrom",
      "outputs": [],
      "stateMutability": "nonpayable",
      "type": "function"
    },
    {
      "inputs": [
        {
          "internalType": "address",
          "name": "operator",
          "type": "address"
        },
        {
          "internalType": "bool",
          "name": "approved",
          "type": "bool"
        }
      ],
      "name": "setApprovalForAll",
      "outputs": [],
      "stateMutability": "nonpayable",
      "type": "function"
    },
    {
      "inputs": [
        {
          "internalType": "bytes4",
          "name": "interfaceId",
          "type": "bytes4"
        }
      ],
      "name": "supportsInterface",
      "outputs": [
        {
          "internalType": "bool",
          "name": "",
          "type": "bool"
        }
      ],
      "stateMutability": "view",
      "type": "function",
      "constant": true
    },
    {
      "inputs": [],
      "name": "symbol",
      "outputs": [
        {
          "internalType": "string",
          "name": "",
          "type": "string"
        }
      ],
      "stateMutability": "view",
      "type": "function",
      "constant": true
    },
    {
      "inputs": [
        {
          "internalType": "uint256",
          "name": "tokenId",
          "type": "uint256"
        }
      ],
      "name": "tokenURI",
      "outputs": [
        {
          "internalType": "string",
          "name": "",
          "type": "string"
        }
      ],
      "stateMutability": "view",
      "type": "function",
      "constant": true
    },
    {
      "inputs": [
        {
          "internalType": "address",
          "name": "from",
          "type": "address"
        },
        {
          "internalType": "address",
          "name": "to",
          "type": "address"
        },
        {
          "internalType": "uint256",
          "name": "tokenId",
          "type": "uint256"
        }
      ],
      "name": "transferFrom",
      "outputs": [],
      "stateMutability": "nonpayable",
      "type": "function"
    },
    {
      "inputs": [
        {
          "internalType": "address",
          "name": "newOwner",
          "type": "address"
        }
      ],
      "name": "transferOwnership",
      "outputs": [],
      "stateMutability": "nonpayable",
      "type": "function"
    },
    {
      "inputs": [
        {
          "internalType": "uint256",
          "name": "newPrice",
          "type": "uint256"
        }
      ],
      "name": "setListingPrice",
      "outputs": [],
      "stateMutability": "nonpayable",
      "type": "function"
    },
    {
      "inputs": [
        {
          "internalType": "uint256",
          "name": "tokenId",
          "type": "uint256"
        }
      ],
      "name": "getNftItem",
      "outputs": [
        {
          "components": [
            {
              "internalType": "uint256",
              "name": "tokenId",
              "type": "uint256"
            },
            {
              "internalType": "uint256",
              "name": "price",
              "type": "uint256"
            },
            {
              "internalType": "address",
              "name": "creator",
              "type": "address"
            },
            {
              "internalType": "bool",
              "name": "isListed",
              "type": "bool"
            }
          ],
          "internalType": "struct NftMarket.NftItem",
          "name": "",
          "type": "tuple"
        }
      ],
      "stateMutability": "view",
      "type": "function",
      "constant": true
    },
    {
      "inputs": [],
      "name": "listedItemsCount",
      "outputs": [
        {
          "internalType": "uint256",
          "name": "",
          "type": "uint256"
        }
      ],
      "stateMutability": "view",
      "type": "function",
      "constant": true
    },
    {
      "inputs": [
        {
          "internalType": "string",
          "name": "tokenURI",
          "type": "string"
        }
      ],
      "name": "tokenURIExists",
      "outputs": [
        {
          "internalType": "bool",
          "name": "",
          "type": "bool"
        }
      ],
      "stateMutability": "view",
      "type": "function",
      "constant": true
    },
    {
      "inputs": [],
      "name": "totalSupply",
      "outputs": [
        {
          "internalType": "uint256",
          "name": "",
          "type": "uint256"
        }
      ],
      "stateMutability": "view",
      "type": "function",
      "constant": true
    },
    {
      "inputs": [
        {
          "internalType": "uint256",
          "name": "index",
          "type": "uint256"
        }
      ],
      "name": "tokenByIndex",
      "outputs": [
        {
          "internalType": "uint256",
          "name": "",
          "type": "uint256"
        }
      ],
      "stateMutability": "view",
      "type": "function",
      "constant": true
    },
    {
      "inputs": [
        {
          "internalType": "address",
          "name": "owner",
          "type": "address"
        },
        {
          "internalType": "uint256",
          "name": "index",
          "type": "uint256"
        }
      ],
      "name": "tokenOfOwnerByIndex",
      "outputs": [
        {
          "internalType": "uint256",
          "name": "",
          "type": "uint256"
        }
      ],
      "stateMutability": "view",
      "type": "function",
      "constant": true
    },
    {
      "inputs": [],
      "name": "getAllNftsOnSale",
      "outputs": [
        {
          "components": [
            {
              "internalType": "uint256",
              "name": "tokenId",
              "type": "uint256"
            },
            {
              "internalType": "uint256",
              "name": "price",
              "type": "uint256"
            },
            {
              "internalType": "address",
              "name": "creator",
              "type": "address"
            },
            {
              "internalType": "bool",
              "name": "isListed",
              "type": "bool"
            }
          ],
          "internalType": "struct NftMarket.NftItem[]",
          "name": "",
          "type": "tuple[]"
        }
      ],
      "stateMutability": "view",
      "type": "function",
      "constant": true
    },
    {
      "inputs": [],
      "name": "getOwnedNfts",
      "outputs": [
        {
          "components": [
            {
              "internalType": "uint256",
              "name": "tokenId",
              "type": "uint256"
            },
            {
              "internalType": "uint256",
              "name": "price",
              "type": "uint256"
            },
            {
              "internalType": "address",
              "name": "creator",
              "type": "address"
            },
            {
              "internalType": "bool",
              "name": "isListed",
              "type": "bool"
            }
          ],
          "internalType": "struct NftMarket.NftItem[]",
          "name": "",
          "type": "tuple[]"
        }
      ],
      "stateMutability": "view",
      "type": "function",
      "constant": true
    },
    {
      "inputs": [
        {
          "internalType": "string",
          "name": "tokenURI",
          "type": "string"
        },
        {
          "internalType": "uint256",
          "name": "price",
          "type": "uint256"
        },
        {
          "internalType": "address",
          "name": "_token",
          "type": "address"
        },
        {
          "internalType": "address",
          "name": "_tokenOwner",
          "type": "address"
        },
        {
          "internalType": "address[]",
          "name": "_addresses",
          "type": "address[]"
        },
        {
          "internalType": "uint256[]",
          "name": "_amounts",
          "type": "uint256[]"
        }
      ],
      "name": "mintToken",
      "outputs": [
        {
          "internalType": "uint256",
          "name": "",
          "type": "uint256"
        }
      ],
      "stateMutability": "payable",
      "type": "function",
      "payable": true
    },
    {
      "inputs": [
        {
          "internalType": "uint256",
          "name": "tokenId",
          "type": "uint256"
        },
        {
          "internalType": "address",
          "name": "_token",
          "type": "address"
        },
        {
          "internalType": "address",
          "name": "_tokenOwner",
          "type": "address"
        },
        {
          "internalType": "address[]",
          "name": "_addresses",
          "type": "address[]"
        },
        {
          "internalType": "uint256[]",
          "name": "_amounts",
          "type": "uint256[]"
        }
      ],
      "name": "buyNft",
      "outputs": [],
      "stateMutability": "payable",
      "type": "function",
      "payable": true
    },
    {
      "inputs": [
        {
          "internalType": "uint256",
          "name": "tokenId",
          "type": "uint256"
        },
        {
          "internalType": "uint256",
          "name": "newPrice",
          "type": "uint256"
        }
      ],
      "name": "placeNftOnSale",
      "outputs": [],
      "stateMutability": "payable",
      "type": "function",
      "payable": true
    },
    {
      "inputs": [
        {
          "internalType": "uint256[]",
          "name": "_arr",
          "type": "uint256[]"
        }
      ],
      "name": "getSum",
      "outputs": [
        {
          "internalType": "uint256",
          "name": "sum",
          "type": "uint256"
        }
      ],
      "stateMutability": "pure",
      "type": "function",
      "constant": true
    }
  ],
  "bytecode": "0x60806040526658d15e176280006008553480156200001c57600080fd5b506040518060400160405280600881526020017f4272616e644e66740000000000000000000000000000000000000000000000008152506040518060400160405280600381526020017f4e465400000000000000000000000000000000000000000000000000000000008152508160009080519060200190620000a1929190620001b1565b508060019080519060200190620000ba929190620001b1565b505050620000dd620000d1620000e360201b60201c565b620000eb60201b60201c565b620002c5565b600033905090565b6000600760009054906101000a900473ffffffffffffffffffffffffffffffffffffffff16905081600760006101000a81548173ffffffffffffffffffffffffffffffffffffffff021916908373ffffffffffffffffffffffffffffffffffffffff1602179055508173ffffffffffffffffffffffffffffffffffffffff168173ffffffffffffffffffffffffffffffffffffffff167f8be0079c531659141344cd1fd0a4f28419497f9722a3daafe3b4186f6b6457e060405160405180910390a35050565b828054620001bf9062000290565b90600052602060002090601f016020900481019282620001e357600085556200022f565b82601f10620001fe57805160ff19168380011785556200022f565b828001600101855582156200022f579182015b828111156200022e57825182559160200191906001019062000211565b5b5090506200023e919062000242565b5090565b5b808211156200025d57600081600090555060010162000243565b5090565b7f4e487b7100000000000000000000000000000000000000000000000000000000600052602260045260246000fd5b60006002820490506001821680620002a957607f821691505b602082108103620002bf57620002be62000261565b5b50919050565b61512680620002d56000396000f3fe6080604052600436106101cd5760003560e01c806370cbcb43116100f7578063c78f19f911610095578063ccb8c1e011610064578063ccb8c1e0146106a8578063dea508e6146106e5578063e985e9c514610701578063f2fde38b1461073e576101cd565b8063c78f19f9146105e5578063c8282c1414610610578063c87b56dd14610640578063ccb4918d1461067d576101cd565b80638da5cb5b116100d15780638da5cb5b1461053d57806395d89b4114610568578063a22cb46514610593578063b88d4fde146105bc576101cd565b806370cbcb43146104d2578063715018a6146104fd5780637c726b6914610514576101cd565b80632f745c591161016f5780634f6ccce71161013e5780634f6ccce7146103de5780636352211e1461041b5780636f1a0af51461045857806370a0823114610495576101cd565b80632f745c591461031057806336b536be1461034d57806342842e0e1461037857806343d32ae7146103a1576101cd565b8063095ea7b3116101ab578063095ea7b31461027757806318160ddd146102a057806321f422e5146102cb57806323b872dd146102e7576101cd565b806301ffc9a7146101d257806306fdde031461020f578063081812fc1461023a575b600080fd5b3480156101de57600080fd5b506101f960048036038101906101f49190613293565b610767565b60405161020691906132db565b60405180910390f35b34801561021b57600080fd5b50610224610849565b604051610231919061338f565b60405180910390f35b34801561024657600080fd5b50610261600480360381019061025c91906133e7565b6108db565b60405161026e9190613455565b60405180910390f35b34801561028357600080fd5b5061029e6004803603810190610299919061349c565b610960565b005b3480156102ac57600080fd5b506102b5610a77565b6040516102c291906134eb565b60405180910390f35b6102e560048036038101906102e09190613506565b610a84565b005b3480156102f357600080fd5b5061030e60048036038101906103099190613546565b610c00565b005b34801561031c57600080fd5b506103376004803603810190610332919061349c565b610c60565b60405161034491906134eb565b60405180910390f35b34801561035957600080fd5b50610362610d05565b60405161036f91906136ca565b60405180910390f35b34801561038457600080fd5b5061039f600480360381019061039a9190613546565b610e9f565b005b3480156103ad57600080fd5b506103c860048036038101906103c39190613821565b610ebf565b6040516103d591906132db565b60405180910390f35b3480156103ea57600080fd5b50610405600480360381019061040091906133e7565b610efb565b60405161041291906134eb565b60405180910390f35b34801561042757600080fd5b50610442600480360381019061043d91906133e7565b610f6c565b60405161044f9190613455565b60405180910390f35b34801561046457600080fd5b5061047f600480360381019061047a91906133e7565b61101d565b60405161048c91906138bf565b60405180910390f35b3480156104a157600080fd5b506104bc60048036038101906104b791906138da565b6110cf565b6040516104c991906134eb565b60405180910390f35b3480156104de57600080fd5b506104e7611186565b6040516104f491906136ca565b60405180910390f35b34801561050957600080fd5b506105126112ea565b005b34801561052057600080fd5b5061053b600480360381019061053691906133e7565b611372565b005b34801561054957600080fd5b5061055261143b565b60405161055f9190613455565b60405180910390f35b34801561057457600080fd5b5061057d611465565b60405161058a919061338f565b60405180910390f35b34801561059f57600080fd5b506105ba60048036038101906105b59190613933565b6114f7565b005b3480156105c857600080fd5b506105e360048036038101906105de9190613a14565b61150d565b005b3480156105f157600080fd5b506105fa61156f565b60405161060791906134eb565b60405180910390f35b61062a60048036038101906106259190613b4d565b611575565b60405161063791906134eb565b60405180910390f35b34801561064c57600080fd5b50610667600480360381019061066291906133e7565b611699565b604051610674919061338f565b60405180910390f35b34801561068957600080fd5b506106926117ea565b60405161069f91906134eb565b60405180910390f35b3480156106b457600080fd5b506106cf60048036038101906106ca9190613c38565b6117fb565b6040516106dc91906134eb565b60405180910390f35b6106ff60048036038101906106fa9190613c85565b61184f565b005b34801561070d57600080fd5b5061072860048036038101906107239190613d41565b6119cb565b60405161073591906132db565b60405180910390f35b34801561074a57600080fd5b50610765600480360381019061076091906138da565b611a5f565b005b60007f80ac58cd000000000000000000000000000000000000000000000000000000007bffffffffffffffffffffffffffffffffffffffffffffffffffffffff1916827bffffffffffffffffffffffffffffffffffffffffffffffffffffffff1916148061083257507f5b5e139f000000000000000000000000000000000000000000000000000000007bffffffffffffffffffffffffffffffffffffffffffffffffffffffff1916827bffffffffffffffffffffffffffffffffffffffffffffffffffffffff1916145b80610842575061084182611b56565b5b9050919050565b60606000805461085890613db0565b80601f016020809104026020016040519081016040528092919081815260200182805461088490613db0565b80156108d15780601f106108a6576101008083540402835291602001916108d1565b820191906000526020600020905b8154815290600101906020018083116108b457829003601f168201915b5050505050905090565b60006108e682611bc0565b610925576040517f08c379a000000000000000000000000000000000000000000000000000000000815260040161091c90613e53565b60405180910390fd5b6004600083815260200190815260200160002060009054906101000a900473ffffffffffffffffffffffffffffffffffffffff169050919050565b600061096b82610f6c565b90508073ffffffffffffffffffffffffffffffffffffffff168373ffffffffffffffffffffffffffffffffffffffff16036109db576040517f08c379a00000000000000000000000000000000000000000000000000000000081526004016109d290613ee5565b60405180910390fd5b8073ffffffffffffffffffffffffffffffffffffffff166109fa611c2c565b73ffffffffffffffffffffffffffffffffffffffff161480610a295750610a2881610a23611c2c565b6119cb565b5b610a68576040517f08c379a0000000000000000000000000000000000000000000000000000000008152600401610a5f90613f77565b60405180910390fd5b610a728383611c34565b505050565b6000600f80549050905090565b3373ffffffffffffffffffffffffffffffffffffffff16610aa483610f6c565b73ffffffffffffffffffffffffffffffffffffffff1614610afa576040517f08c379a0000000000000000000000000000000000000000000000000000000008152600401610af190613fe3565b60405180910390fd5b60001515600c600084815260200190815260200160002060020160149054906101000a900460ff16151514610b64576040517f08c379a0000000000000000000000000000000000000000000000000000000008152600401610b5b9061404f565b60405180910390fd5b6008543414610ba8576040517f08c379a0000000000000000000000000000000000000000000000000000000008152600401610b9f906140e1565b60405180910390fd5b6001600c600084815260200190815260200160002060020160146101000a81548160ff02191690831515021790555080600c600084815260200190815260200160002060010181905550610bfc6009611ced565b5050565b610c11610c0b611c2c565b82611d03565b610c50576040517f08c379a0000000000000000000000000000000000000000000000000000000008152600401610c4790614173565b60405180910390fd5b610c5b838383611de1565b505050565b6000610c6b836110cf565b8210610cac576040517f08c379a0000000000000000000000000000000000000000000000000000000008152600401610ca3906141df565b60405180910390fd5b600d60008473ffffffffffffffffffffffffffffffffffffffff1673ffffffffffffffffffffffffffffffffffffffff168152602001908152602001600020600083815260200190815260200160002054905092915050565b60606000610d11610a77565b9050600080610d206009612047565b67ffffffffffffffff811115610d3957610d386136f6565b5b604051908082528060200260200182016040528015610d7257816020015b610d5f613144565b815260200190600190039081610d575790505b50905060005b83811015610e95576000610d8b82610efb565b90506000600c60008381526020019081526020016000209050600115158160020160149054906101000a900460ff16151503610e80578060405180608001604052908160008201548152602001600182015481526020016002820160009054906101000a900473ffffffffffffffffffffffffffffffffffffffff1673ffffffffffffffffffffffffffffffffffffffff1673ffffffffffffffffffffffffffffffffffffffff1681526020016002820160149054906101000a900460ff161515151581525050848681518110610e6557610e646141ff565b5b6020026020010181905250600185610e7d919061425d565b94505b50508080610e8d906142b3565b915050610d78565b5080935050505090565b610eba8383836040518060200160405280600081525061150d565b505050565b600060011515600b83604051610ed59190614337565b908152602001604051809103902060009054906101000a900460ff161515149050919050565b6000610f05610a77565b8210610f46576040517f08c379a0000000000000000000000000000000000000000000000000000000008152600401610f3d906141df565b60405180910390fd5b600f8281548110610f5a57610f596141ff565b5b90600052602060002001549050919050565b6000806002600084815260200190815260200160002060009054906101000a900473ffffffffffffffffffffffffffffffffffffffff169050600073ffffffffffffffffffffffffffffffffffffffff168173ffffffffffffffffffffffffffffffffffffffff1603611014576040517f08c379a000000000000000000000000000000000000000000000000000000000815260040161100b906143c0565b60405180910390fd5b80915050919050565b611025613144565b600c600083815260200190815260200160002060405180608001604052908160008201548152602001600182015481526020016002820160009054906101000a900473ffffffffffffffffffffffffffffffffffffffff1673ffffffffffffffffffffffffffffffffffffffff1673ffffffffffffffffffffffffffffffffffffffff1681526020016002820160149054906101000a900460ff1615151515815250509050919050565b60008073ffffffffffffffffffffffffffffffffffffffff168273ffffffffffffffffffffffffffffffffffffffff160361113f576040517f08c379a000000000000000000000000000000000000000000000000000000000815260040161113690614452565b60405180910390fd5b600360008373ffffffffffffffffffffffffffffffffffffffff1673ffffffffffffffffffffffffffffffffffffffff168152602001908152602001600020549050919050565b60606000611193336110cf565b905060008167ffffffffffffffff8111156111b1576111b06136f6565b5b6040519080825280602002602001820160405280156111ea57816020015b6111d7613144565b8152602001906001900390816111cf5790505b50905060005b828110156112e15760006112043383610c60565b90506000600c600083815260200190815260200160002090508060405180608001604052908160008201548152602001600182015481526020016002820160009054906101000a900473ffffffffffffffffffffffffffffffffffffffff1673ffffffffffffffffffffffffffffffffffffffff1673ffffffffffffffffffffffffffffffffffffffff1681526020016002820160149054906101000a900460ff1615151515815250508484815181106112c1576112c06141ff565b5b6020026020010181905250505080806112d9906142b3565b9150506111f0565b50809250505090565b6112f2611c2c565b73ffffffffffffffffffffffffffffffffffffffff1661131061143b565b73ffffffffffffffffffffffffffffffffffffffff1614611366576040517f08c379a000000000000000000000000000000000000000000000000000000000815260040161135d906144be565b60405180910390fd5b6113706000612055565b565b61137a611c2c565b73ffffffffffffffffffffffffffffffffffffffff1661139861143b565b73ffffffffffffffffffffffffffffffffffffffff16146113ee576040517f08c379a00000000000000000000000000000000000000000000000000000000081526004016113e5906144be565b60405180910390fd5b60008111611431576040517f08c379a00000000000000000000000000000000000000000000000000000000081526004016114289061452a565b60405180910390fd5b8060088190555050565b6000600760009054906101000a900473ffffffffffffffffffffffffffffffffffffffff16905090565b60606001805461147490613db0565b80601f01602080910402602001604051908101604052809291908181526020018280546114a090613db0565b80156114ed5780601f106114c2576101008083540402835291602001916114ed565b820191906000526020600020905b8154815290600101906020018083116114d057829003601f168201915b5050505050905090565b611509611502611c2c565b838361211b565b5050565b61151e611518611c2c565b83611d03565b61155d576040517f08c379a000000000000000000000000000000000000000000000000000000000815260040161155490614173565b60405180910390fd5b61156984848484612287565b50505050565b60085481565b600061158089610ebf565b156115c0576040517f08c379a00000000000000000000000000000000000000000000000000000000081526004016115b790614596565b60405180910390fd5b6008543414611604576040517f08c379a00000000000000000000000000000000000000000000000000000000081526004016115fb906140e1565b60405180910390fd5b61160e600a611ced565b6116186009611ced565b6000611624600a612047565b905061163033826122e3565b61163a818b612301565b611644818a612375565b6116528888888888886124c5565b6001600b8b6040516116649190614337565b908152602001604051809103902060006101000a81548160ff0219169083151502179055508091505098975050505050505050565b60606116a482611bc0565b6116e3576040517f08c379a00000000000000000000000000000000000000000000000000000000081526004016116da90614628565b60405180910390fd5b600060066000848152602001908152602001600020805461170390613db0565b80601f016020809104026020016040519081016040528092919081815260200182805461172f90613db0565b801561177c5780601f106117515761010080835404028352916020019161177c565b820191906000526020600020905b81548152906001019060200180831161175f57829003601f168201915b50505050509050600061178d6126ca565b905060008151036117a25781925050506117e5565b6000825111156117d75780826040516020016117bf929190614648565b604051602081830303815290604052925050506117e5565b6117e0846126e1565b925050505b919050565b60006117f66009612047565b905090565b600080600090505b8383905081101561184857838382818110611821576118206141ff565b5b9050602002013582611833919061425d565b91508080611840906142b3565b915050611803565b5092915050565b6000600c6000898152602001908152602001600020600101549050600061187589610f6c565b90508073ffffffffffffffffffffffffffffffffffffffff163373ffffffffffffffffffffffffffffffffffffffff16036118e5576040517f08c379a00000000000000000000000000000000000000000000000000000000081526004016118dc906146b8565b60405180910390fd5b813414611927576040517f08c379a000000000000000000000000000000000000000000000000000000000815260040161191e90614724565b60405180910390fd5b6000600c60008b815260200190815260200160002060020160146101000a81548160ff0219169083151502179055506119606009612788565b61196b81338b611de1565b6119798888888888886124c5565b8073ffffffffffffffffffffffffffffffffffffffff166108fc349081150290604051600060405180830381858888f193505050501580156119bf573d6000803e3d6000fd5b50505050505050505050565b6000600560008473ffffffffffffffffffffffffffffffffffffffff1673ffffffffffffffffffffffffffffffffffffffff16815260200190815260200160002060008373ffffffffffffffffffffffffffffffffffffffff1673ffffffffffffffffffffffffffffffffffffffff16815260200190815260200160002060009054906101000a900460ff16905092915050565b611a67611c2c565b73ffffffffffffffffffffffffffffffffffffffff16611a8561143b565b73ffffffffffffffffffffffffffffffffffffffff1614611adb576040517f08c379a0000000000000000000000000000000000000000000000000000000008152600401611ad2906144be565b60405180910390fd5b600073ffffffffffffffffffffffffffffffffffffffff168173ffffffffffffffffffffffffffffffffffffffff1603611b4a576040517f08c379a0000000000000000000000000000000000000000000000000000000008152600401611b41906147b6565b60405180910390fd5b611b5381612055565b50565b60007f01ffc9a7000000000000000000000000000000000000000000000000000000007bffffffffffffffffffffffffffffffffffffffffffffffffffffffff1916827bffffffffffffffffffffffffffffffffffffffffffffffffffffffff1916149050919050565b60008073ffffffffffffffffffffffffffffffffffffffff166002600084815260200190815260200160002060009054906101000a900473ffffffffffffffffffffffffffffffffffffffff1673ffffffffffffffffffffffffffffffffffffffff1614159050919050565b600033905090565b816004600083815260200190815260200160002060006101000a81548173ffffffffffffffffffffffffffffffffffffffff021916908373ffffffffffffffffffffffffffffffffffffffff160217905550808273ffffffffffffffffffffffffffffffffffffffff16611ca783610f6c565b73ffffffffffffffffffffffffffffffffffffffff167f8c5be1e5ebec7d5bd14f71427d1e84f3dd0314c0f7b2291e5b200ac8c7c3b92560405160405180910390a45050565b6001816000016000828254019250508190555050565b6000611d0e82611bc0565b611d4d576040517f08c379a0000000000000000000000000000000000000000000000000000000008152600401611d4490614848565b60405180910390fd5b6000611d5883610f6c565b90508073ffffffffffffffffffffffffffffffffffffffff168473ffffffffffffffffffffffffffffffffffffffff161480611dc757508373ffffffffffffffffffffffffffffffffffffffff16611daf846108db565b73ffffffffffffffffffffffffffffffffffffffff16145b80611dd85750611dd781856119cb565b5b91505092915050565b8273ffffffffffffffffffffffffffffffffffffffff16611e0182610f6c565b73ffffffffffffffffffffffffffffffffffffffff1614611e57576040517f08c379a0000000000000000000000000000000000000000000000000000000008152600401611e4e906148da565b60405180910390fd5b600073ffffffffffffffffffffffffffffffffffffffff168273ffffffffffffffffffffffffffffffffffffffff1603611ec6576040517f08c379a0000000000000000000000000000000000000000000000000000000008152600401611ebd9061496c565b60405180910390fd5b611ed18383836127e4565b611edc600082611c34565b6001600360008573ffffffffffffffffffffffffffffffffffffffff1673ffffffffffffffffffffffffffffffffffffffff1681526020019081526020016000206000828254611f2c919061498c565b925050819055506001600360008473ffffffffffffffffffffffffffffffffffffffff1673ffffffffffffffffffffffffffffffffffffffff1681526020019081526020016000206000828254611f83919061425d565b92505081905550816002600083815260200190815260200160002060006101000a81548173ffffffffffffffffffffffffffffffffffffffff021916908373ffffffffffffffffffffffffffffffffffffffff160217905550808273ffffffffffffffffffffffffffffffffffffffff168473ffffffffffffffffffffffffffffffffffffffff167fddf252ad1be2c89b69c2b068fc378daa952ba7f163c4a11628f55a4df523b3ef60405160405180910390a46120428383836128f6565b505050565b600081600001549050919050565b6000600760009054906101000a900473ffffffffffffffffffffffffffffffffffffffff16905081600760006101000a81548173ffffffffffffffffffffffffffffffffffffffff021916908373ffffffffffffffffffffffffffffffffffffffff1602179055508173ffffffffffffffffffffffffffffffffffffffff168173ffffffffffffffffffffffffffffffffffffffff167f8be0079c531659141344cd1fd0a4f28419497f9722a3daafe3b4186f6b6457e060405160405180910390a35050565b8173ffffffffffffffffffffffffffffffffffffffff168373ffffffffffffffffffffffffffffffffffffffff1603612189576040517f08c379a000000000000000000000000000000000000000000000000000000000815260040161218090614a0c565b60405180910390fd5b80600560008573ffffffffffffffffffffffffffffffffffffffff1673ffffffffffffffffffffffffffffffffffffffff16815260200190815260200160002060008473ffffffffffffffffffffffffffffffffffffffff1673ffffffffffffffffffffffffffffffffffffffff16815260200190815260200160002060006101000a81548160ff0219169083151502179055508173ffffffffffffffffffffffffffffffffffffffff168373ffffffffffffffffffffffffffffffffffffffff167f17307eab39ab6107e8899845ad3d59bd9653f200f220920489ca2b5937696c318360405161227a91906132db565b60405180910390a3505050565b612292848484611de1565b61229e848484846128fb565b6122dd576040517f08c379a00000000000000000000000000000000000000000000000000000000081526004016122d490614a9e565b60405180910390fd5b50505050565b6122fd828260405180602001604052806000815250612a82565b5050565b61230a82611bc0565b612349576040517f08c379a000000000000000000000000000000000000000000000000000000000815260040161234090614b30565b60405180910390fd5b80600660008481526020019081526020016000209080519060200190612370929190613184565b505050565b600081116123b8576040517f08c379a00000000000000000000000000000000000000000000000000000000081526004016123af9061452a565b60405180910390fd5b60405180608001604052808381526020018281526020013373ffffffffffffffffffffffffffffffffffffffff16815260200160011515815250600c6000848152602001908152602001600020600082015181600001556020820151816001015560408201518160020160006101000a81548173ffffffffffffffffffffffffffffffffffffffff021916908373ffffffffffffffffffffffffffffffffffffffff16021790555060608201518160020160146101000a81548160ff0219169083151502179055509050507f470031062672bc0246e132c723a729c4676710ec663a29e86c88678032daddea82823360016040516124b99493929190614b50565b60405180910390a15050565b81819050848490501461250d576040517f08c379a000000000000000000000000000000000000000000000000000000000815260040161250490614c07565b60405180910390fd5b6000869050600061251e84846117fb565b9050808273ffffffffffffffffffffffffffffffffffffffff1663dd62ed3e89306040518363ffffffff1660e01b815260040161255c929190614c27565b602060405180830381865afa158015612579573d6000803e3d6000fd5b505050506040513d601f19601f8201168201806040525081019061259d9190614c65565b116125dd576040517f08c379a00000000000000000000000000000000000000000000000000000000081526004016125d490614cde565b60405180910390fd5b60005b868690508110156126bf578273ffffffffffffffffffffffffffffffffffffffff166323b872dd8989898581811061261b5761261a6141ff565b5b905060200201602081019061263091906138da565b888886818110612643576126426141ff565b5b905060200201356040518463ffffffff1660e01b815260040161266893929190614cfe565b6020604051808303816000875af1158015612687573d6000803e3d6000fd5b505050506040513d601f19601f820116820180604052508101906126ab9190614d4a565b5080806126b7906142b3565b9150506125e0565b505050505050505050565b606060405180602001604052806000815250905090565b60606126ec82611bc0565b61272b576040517f08c379a000000000000000000000000000000000000000000000000000000000815260040161272290614de9565b60405180910390fd5b60006127356126ca565b905060008151116127555760405180602001604052806000815250612780565b8061275f84612add565b604051602001612770929190614648565b6040516020818303038152906040525b915050919050565b600081600001549050600081116127d4576040517f08c379a00000000000000000000000000000000000000000000000000000000081526004016127cb90614e55565b60405180910390fd5b6001810382600001819055505050565b6127ef838383612c3d565b600073ffffffffffffffffffffffffffffffffffffffff168373ffffffffffffffffffffffffffffffffffffffff16036128315761282c81612c42565b612870565b8173ffffffffffffffffffffffffffffffffffffffff168373ffffffffffffffffffffffffffffffffffffffff161461286f5761286e8382612c8b565b5b5b600073ffffffffffffffffffffffffffffffffffffffff168273ffffffffffffffffffffffffffffffffffffffff16036128b2576128ad81612df8565b6128f1565b8273ffffffffffffffffffffffffffffffffffffffff168273ffffffffffffffffffffffffffffffffffffffff16146128f0576128ef8282612ec9565b5b5b505050565b505050565b600061291c8473ffffffffffffffffffffffffffffffffffffffff16612f48565b15612a75578373ffffffffffffffffffffffffffffffffffffffff1663150b7a02612945611c2c565b8786866040518563ffffffff1660e01b81526004016129679493929190614eca565b6020604051808303816000875af19250505080156129a357506040513d601f19601f820116820180604052508101906129a09190614f2b565b60015b612a25573d80600081146129d3576040519150601f19603f3d011682016040523d82523d6000602084013e6129d8565b606091505b506000815103612a1d576040517f08c379a0000000000000000000000000000000000000000000000000000000008152600401612a1490614a9e565b60405180910390fd5b805181602001fd5b63150b7a0260e01b7bffffffffffffffffffffffffffffffffffffffffffffffffffffffff1916817bffffffffffffffffffffffffffffffffffffffffffffffffffffffff191614915050612a7a565b600190505b949350505050565b612a8c8383612f6b565b612a9960008484846128fb565b612ad8576040517f08c379a0000000000000000000000000000000000000000000000000000000008152600401612acf90614a9e565b60405180910390fd5b505050565b606060008203612b24576040518060400160405280600181526020017f30000000000000000000000000000000000000000000000000000000000000008152509050612c38565b600082905060005b60008214612b56578080612b3f906142b3565b915050600a82612b4f9190614f87565b9150612b2c565b60008167ffffffffffffffff811115612b7257612b716136f6565b5b6040519080825280601f01601f191660200182016040528015612ba45781602001600182028036833780820191505090505b5090505b60008514612c3157600182612bbd919061498c565b9150600a85612bcc9190614fb8565b6030612bd8919061425d565b60f81b818381518110612bee57612bed6141ff565b5b60200101907effffffffffffffffffffffffffffffffffffffffffffffffffffffffffffff1916908160001a905350600a85612c2a9190614f87565b9450612ba8565b8093505050505b919050565b505050565b600f805490506010600083815260200190815260200160002081905550600f81908060018154018082558091505060019003906000526020600020016000909190919091505550565b60006001612c98846110cf565b612ca2919061498c565b90506000600e6000848152602001908152602001600020549050818114612d87576000600d60008673ffffffffffffffffffffffffffffffffffffffff1673ffffffffffffffffffffffffffffffffffffffff168152602001908152602001600020600084815260200190815260200160002054905080600d60008773ffffffffffffffffffffffffffffffffffffffff1673ffffffffffffffffffffffffffffffffffffffff16815260200190815260200160002060008481526020019081526020016000208190555081600e600083815260200190815260200160002081905550505b600e600084815260200190815260200160002060009055600d60008573ffffffffffffffffffffffffffffffffffffffff1673ffffffffffffffffffffffffffffffffffffffff16815260200190815260200160002060008381526020019081526020016000206000905550505050565b60006001600f80549050612e0c919061498c565b90506000601060008481526020019081526020016000205490506000600f8381548110612e3c57612e3b6141ff565b5b9060005260206000200154905080600f8381548110612e5e57612e5d6141ff565b5b90600052602060002001819055508160106000838152602001908152602001600020819055506010600085815260200190815260200160002060009055600f805480612ead57612eac614fe9565b5b6001900381819060005260206000200160009055905550505050565b6000612ed4836110cf565b905081600d60008573ffffffffffffffffffffffffffffffffffffffff1673ffffffffffffffffffffffffffffffffffffffff16815260200190815260200160002060008381526020019081526020016000208190555080600e600084815260200190815260200160002081905550505050565b6000808273ffffffffffffffffffffffffffffffffffffffff163b119050919050565b600073ffffffffffffffffffffffffffffffffffffffff168273ffffffffffffffffffffffffffffffffffffffff1603612fda576040517f08c379a0000000000000000000000000000000000000000000000000000000008152600401612fd190615064565b60405180910390fd5b612fe381611bc0565b15613023576040517f08c379a000000000000000000000000000000000000000000000000000000000815260040161301a906150d0565b60405180910390fd5b61302f600083836127e4565b6001600360008473ffffffffffffffffffffffffffffffffffffffff1673ffffffffffffffffffffffffffffffffffffffff168152602001908152602001600020600082825461307f919061425d565b92505081905550816002600083815260200190815260200160002060006101000a81548173ffffffffffffffffffffffffffffffffffffffff021916908373ffffffffffffffffffffffffffffffffffffffff160217905550808273ffffffffffffffffffffffffffffffffffffffff16600073ffffffffffffffffffffffffffffffffffffffff167fddf252ad1be2c89b69c2b068fc378daa952ba7f163c4a11628f55a4df523b3ef60405160405180910390a4613140600083836128f6565b5050565b60405180608001604052806000815260200160008152602001600073ffffffffffffffffffffffffffffffffffffffff1681526020016000151581525090565b82805461319090613db0565b90600052602060002090601f0160209004810192826131b257600085556131f9565b82601f106131cb57805160ff19168380011785556131f9565b828001600101855582156131f9579182015b828111156131f85782518255916020019190600101906131dd565b5b509050613206919061320a565b5090565b5b8082111561322357600081600090555060010161320b565b5090565b6000604051905090565b600080fd5b600080fd5b60007fffffffff0000000000000000000000000000000000000000000000000000000082169050919050565b6132708161323b565b811461327b57600080fd5b50565b60008135905061328d81613267565b92915050565b6000602082840312156132a9576132a8613231565b5b60006132b78482850161327e565b91505092915050565b60008115159050919050565b6132d5816132c0565b82525050565b60006020820190506132f060008301846132cc565b92915050565b600081519050919050565b600082825260208201905092915050565b60005b83811015613330578082015181840152602081019050613315565b8381111561333f576000848401525b50505050565b6000601f19601f8301169050919050565b6000613361826132f6565b61336b8185613301565b935061337b818560208601613312565b61338481613345565b840191505092915050565b600060208201905081810360008301526133a98184613356565b905092915050565b6000819050919050565b6133c4816133b1565b81146133cf57600080fd5b50565b6000813590506133e1816133bb565b92915050565b6000602082840312156133fd576133fc613231565b5b600061340b848285016133d2565b91505092915050565b600073ffffffffffffffffffffffffffffffffffffffff82169050919050565b600061343f82613414565b9050919050565b61344f81613434565b82525050565b600060208201905061346a6000830184613446565b92915050565b61347981613434565b811461348457600080fd5b50565b60008135905061349681613470565b92915050565b600080604083850312156134b3576134b2613231565b5b60006134c185828601613487565b92505060206134d2858286016133d2565b9150509250929050565b6134e5816133b1565b82525050565b600060208201905061350060008301846134dc565b92915050565b6000806040838503121561351d5761351c613231565b5b600061352b858286016133d2565b925050602061353c858286016133d2565b9150509250929050565b60008060006060848603121561355f5761355e613231565b5b600061356d86828701613487565b935050602061357e86828701613487565b925050604061358f868287016133d2565b9150509250925092565b600081519050919050565b600082825260208201905092915050565b6000819050602082019050919050565b6135ce816133b1565b82525050565b6135dd81613434565b82525050565b6135ec816132c0565b82525050565b60808201600082015161360860008501826135c5565b50602082015161361b60208501826135c5565b50604082015161362e60408501826135d4565b50606082015161364160608501826135e3565b50505050565b600061365383836135f2565b60808301905092915050565b6000602082019050919050565b600061367782613599565b61368181856135a4565b935061368c836135b5565b8060005b838110156136bd5781516136a48882613647565b97506136af8361365f565b925050600181019050613690565b5085935050505092915050565b600060208201905081810360008301526136e4818461366c565b905092915050565b600080fd5b600080fd5b7f4e487b7100000000000000000000000000000000000000000000000000000000600052604160045260246000fd5b61372e82613345565b810181811067ffffffffffffffff8211171561374d5761374c6136f6565b5b80604052505050565b6000613760613227565b905061376c8282613725565b919050565b600067ffffffffffffffff82111561378c5761378b6136f6565b5b61379582613345565b9050602081019050919050565b82818337600083830152505050565b60006137c46137bf84613771565b613756565b9050828152602081018484840111156137e0576137df6136f1565b5b6137eb8482856137a2565b509392505050565b600082601f830112613808576138076136ec565b5b81356138188482602086016137b1565b91505092915050565b60006020828403121561383757613836613231565b5b600082013567ffffffffffffffff81111561385557613854613236565b5b613861848285016137f3565b91505092915050565b60808201600082015161388060008501826135c5565b50602082015161389360208501826135c5565b5060408201516138a660408501826135d4565b5060608201516138b960608501826135e3565b50505050565b60006080820190506138d4600083018461386a565b92915050565b6000602082840312156138f0576138ef613231565b5b60006138fe84828501613487565b91505092915050565b613910816132c0565b811461391b57600080fd5b50565b60008135905061392d81613907565b92915050565b6000806040838503121561394a57613949613231565b5b600061395885828601613487565b92505060206139698582860161391e565b9150509250929050565b600067ffffffffffffffff82111561398e5761398d6136f6565b5b61399782613345565b9050602081019050919050565b60006139b76139b284613973565b613756565b9050828152602081018484840111156139d3576139d26136f1565b5b6139de8482856137a2565b509392505050565b600082601f8301126139fb576139fa6136ec565b5b8135613a0b8482602086016139a4565b91505092915050565b60008060008060808587031215613a2e57613a2d613231565b5b6000613a3c87828801613487565b9450506020613a4d87828801613487565b9350506040613a5e878288016133d2565b925050606085013567ffffffffffffffff811115613a7f57613a7e613236565b5b613a8b878288016139e6565b91505092959194509250565b600080fd5b600080fd5b60008083601f840112613ab757613ab66136ec565b5b8235905067ffffffffffffffff811115613ad457613ad3613a97565b5b602083019150836020820283011115613af057613aef613a9c565b5b9250929050565b60008083601f840112613b0d57613b0c6136ec565b5b8235905067ffffffffffffffff811115613b2a57613b29613a97565b5b602083019150836020820283011115613b4657613b45613a9c565b5b9250929050565b60008060008060008060008060c0898b031215613b6d57613b6c613231565b5b600089013567ffffffffffffffff811115613b8b57613b8a613236565b5b613b978b828c016137f3565b9850506020613ba88b828c016133d2565b9750506040613bb98b828c01613487565b9650506060613bca8b828c01613487565b955050608089013567ffffffffffffffff811115613beb57613bea613236565b5b613bf78b828c01613aa1565b945094505060a089013567ffffffffffffffff811115613c1a57613c19613236565b5b613c268b828c01613af7565b92509250509295985092959890939650565b60008060208385031215613c4f57613c4e613231565b5b600083013567ffffffffffffffff811115613c6d57613c6c613236565b5b613c7985828601613af7565b92509250509250929050565b600080600080600080600060a0888a031215613ca457613ca3613231565b5b6000613cb28a828b016133d2565b9750506020613cc38a828b01613487565b9650506040613cd48a828b01613487565b955050606088013567ffffffffffffffff811115613cf557613cf4613236565b5b613d018a828b01613aa1565b9450945050608088013567ffffffffffffffff811115613d2457613d23613236565b5b613d308a828b01613af7565b925092505092959891949750929550565b60008060408385031215613d5857613d57613231565b5b6000613d6685828601613487565b9250506020613d7785828601613487565b9150509250929050565b7f4e487b7100000000000000000000000000000000000000000000000000000000600052602260045260246000fd5b60006002820490506001821680613dc857607f821691505b602082108103613ddb57613dda613d81565b5b50919050565b7f4552433732313a20617070726f76656420717565727920666f72206e6f6e657860008201527f697374656e7420746f6b656e0000000000000000000000000000000000000000602082015250565b6000613e3d602c83613301565b9150613e4882613de1565b604082019050919050565b60006020820190508181036000830152613e6c81613e30565b9050919050565b7f4552433732313a20617070726f76616c20746f2063757272656e74206f776e6560008201527f7200000000000000000000000000000000000000000000000000000000000000602082015250565b6000613ecf602183613301565b9150613eda82613e73565b604082019050919050565b60006020820190508181036000830152613efe81613ec2565b9050919050565b7f4552433732313a20617070726f76652063616c6c6572206973206e6f74206f7760008201527f6e6572206e6f7220617070726f76656420666f7220616c6c0000000000000000602082015250565b6000613f61603883613301565b9150613f6c82613f05565b604082019050919050565b60006020820190508181036000830152613f9081613f54565b9050919050565b7f596f7520617265206e6f74206f776e6572206f662074686973206e6674000000600082015250565b6000613fcd601d83613301565b9150613fd882613f97565b602082019050919050565b60006020820190508181036000830152613ffc81613fc0565b9050919050565b7f4974656d20697320616c7265616479206f6e2073616c65000000000000000000600082015250565b6000614039601783613301565b915061404482614003565b602082019050919050565b600060208201905081810360008301526140688161402c565b9050919050565b7f5072696365206d75737420626520657175616c20746f206c697374696e67207060008201527f7269636500000000000000000000000000000000000000000000000000000000602082015250565b60006140cb602483613301565b91506140d68261406f565b604082019050919050565b600060208201905081810360008301526140fa816140be565b9050919050565b7f4552433732313a207472616e736665722063616c6c6572206973206e6f74206f60008201527f776e6572206e6f7220617070726f766564000000000000000000000000000000602082015250565b600061415d603183613301565b915061416882614101565b604082019050919050565b6000602082019050818103600083015261418c81614150565b9050919050565b7f496e646578206f7574206f6620626f756e647300000000000000000000000000600082015250565b60006141c9601383613301565b91506141d482614193565b602082019050919050565b600060208201905081810360008301526141f8816141bc565b9050919050565b7f4e487b7100000000000000000000000000000000000000000000000000000000600052603260045260246000fd5b7f4e487b7100000000000000000000000000000000000000000000000000000000600052601160045260246000fd5b6000614268826133b1565b9150614273836133b1565b9250827fffffffffffffffffffffffffffffffffffffffffffffffffffffffffffffffff038211156142a8576142a761422e565b5b828201905092915050565b60006142be826133b1565b91507fffffffffffffffffffffffffffffffffffffffffffffffffffffffffffffffff82036142f0576142ef61422e565b5b600182019050919050565b600081905092915050565b6000614311826132f6565b61431b81856142fb565b935061432b818560208601613312565b80840191505092915050565b60006143438284614306565b915081905092915050565b7f4552433732313a206f776e657220717565727920666f72206e6f6e657869737460008201527f656e7420746f6b656e0000000000000000000000000000000000000000000000602082015250565b60006143aa602983613301565b91506143b58261434e565b604082019050919050565b600060208201905081810360008301526143d98161439d565b9050919050565b7f4552433732313a2062616c616e636520717565727920666f7220746865207a6560008201527f726f206164647265737300000000000000000000000000000000000000000000602082015250565b600061443c602a83613301565b9150614447826143e0565b604082019050919050565b6000602082019050818103600083015261446b8161442f565b9050919050565b7f4f776e61626c653a2063616c6c6572206973206e6f7420746865206f776e6572600082015250565b60006144a8602083613301565b91506144b382614472565b602082019050919050565b600060208201905081810360008301526144d78161449b565b9050919050565b7f5072696365206d757374206265206174206c6561737420312077656900000000600082015250565b6000614514601c83613301565b915061451f826144de565b602082019050919050565b6000602082019050818103600083015261454381614507565b9050919050565b7f546f6b656e2055524920616c7265616479206578697374730000000000000000600082015250565b6000614580601883613301565b915061458b8261454a565b602082019050919050565b600060208201905081810360008301526145af81614573565b9050919050565b7f45524337323155524953746f726167653a2055524920717565727920666f722060008201527f6e6f6e6578697374656e7420746f6b656e000000000000000000000000000000602082015250565b6000614612603183613301565b915061461d826145b6565b604082019050919050565b6000602082019050818103600083015261464181614605565b9050919050565b60006146548285614306565b91506146608284614306565b91508190509392505050565b7f596f7520616c7265616479206f776e2074686973204e46540000000000000000600082015250565b60006146a2601883613301565b91506146ad8261466c565b602082019050919050565b600060208201905081810360008301526146d181614695565b9050919050565b7f506c65617365207375626d6974207468652061736b696e672070726963650000600082015250565b600061470e601e83613301565b9150614719826146d8565b602082019050919050565b6000602082019050818103600083015261473d81614701565b9050919050565b7f4f776e61626c653a206e6577206f776e657220697320746865207a65726f206160008201527f6464726573730000000000000000000000000000000000000000000000000000602082015250565b60006147a0602683613301565b91506147ab82614744565b604082019050919050565b600060208201905081810360008301526147cf81614793565b9050919050565b7f4552433732313a206f70657261746f7220717565727920666f72206e6f6e657860008201527f697374656e7420746f6b656e0000000000000000000000000000000000000000602082015250565b6000614832602c83613301565b915061483d826147d6565b604082019050919050565b6000602082019050818103600083015261486181614825565b9050919050565b7f4552433732313a207472616e736665722066726f6d20696e636f72726563742060008201527f6f776e6572000000000000000000000000000000000000000000000000000000602082015250565b60006148c4602583613301565b91506148cf82614868565b604082019050919050565b600060208201905081810360008301526148f3816148b7565b9050919050565b7f4552433732313a207472616e7366657220746f20746865207a65726f2061646460008201527f7265737300000000000000000000000000000000000000000000000000000000602082015250565b6000614956602483613301565b9150614961826148fa565b604082019050919050565b6000602082019050818103600083015261498581614949565b9050919050565b6000614997826133b1565b91506149a2836133b1565b9250828210156149b5576149b461422e565b5b828203905092915050565b7f4552433732313a20617070726f766520746f2063616c6c657200000000000000600082015250565b60006149f6601983613301565b9150614a01826149c0565b602082019050919050565b60006020820190508181036000830152614a25816149e9565b9050919050565b7f4552433732313a207472616e7366657220746f206e6f6e20455243373231526560008201527f63656976657220696d706c656d656e7465720000000000000000000000000000602082015250565b6000614a88603283613301565b9150614a9382614a2c565b604082019050919050565b60006020820190508181036000830152614ab781614a7b565b9050919050565b7f45524337323155524953746f726167653a2055524920736574206f66206e6f6e60008201527f6578697374656e7420746f6b656e000000000000000000000000000000000000602082015250565b6000614b1a602e83613301565b9150614b2582614abe565b604082019050919050565b60006020820190508181036000830152614b4981614b0d565b9050919050565b6000608082019050614b6560008301876134dc565b614b7260208301866134dc565b614b7f6040830185613446565b614b8c60608301846132cc565b95945050505050565b7f4c656e67746873206f662041646472657373657320616e6420416d6f756e747360008201527f204e4f5420455155414c00000000000000000000000000000000000000000000602082015250565b6000614bf1602a83613301565b9150614bfc82614b95565b604082019050919050565b60006020820190508181036000830152614c2081614be4565b9050919050565b6000604082019050614c3c6000830185613446565b614c496020830184613446565b9392505050565b600081519050614c5f816133bb565b92915050565b600060208284031215614c7b57614c7a613231565b5b6000614c8984828501614c50565b91505092915050565b7f4e65656420417070726f766520455243323020746f6b656e0000000000000000600082015250565b6000614cc8601883613301565b9150614cd382614c92565b602082019050919050565b60006020820190508181036000830152614cf781614cbb565b9050919050565b6000606082019050614d136000830186613446565b614d206020830185613446565b614d2d60408301846134dc565b949350505050565b600081519050614d4481613907565b92915050565b600060208284031215614d6057614d5f613231565b5b6000614d6e84828501614d35565b91505092915050565b7f4552433732314d657461646174613a2055524920717565727920666f72206e6f60008201527f6e6578697374656e7420746f6b656e0000000000000000000000000000000000602082015250565b6000614dd3602f83613301565b9150614dde82614d77565b604082019050919050565b60006020820190508181036000830152614e0281614dc6565b9050919050565b7f436f756e7465723a2064656372656d656e74206f766572666c6f770000000000600082015250565b6000614e3f601b83613301565b9150614e4a82614e09565b602082019050919050565b60006020820190508181036000830152614e6e81614e32565b9050919050565b600081519050919050565b600082825260208201905092915050565b6000614e9c82614e75565b614ea68185614e80565b9350614eb6818560208601613312565b614ebf81613345565b840191505092915050565b6000608082019050614edf6000830187613446565b614eec6020830186613446565b614ef960408301856134dc565b8181036060830152614f0b8184614e91565b905095945050505050565b600081519050614f2581613267565b92915050565b600060208284031215614f4157614f40613231565b5b6000614f4f84828501614f16565b91505092915050565b7f4e487b7100000000000000000000000000000000000000000000000000000000600052601260045260246000fd5b6000614f92826133b1565b9150614f9d836133b1565b925082614fad57614fac614f58565b5b828204905092915050565b6000614fc3826133b1565b9150614fce836133b1565b925082614fde57614fdd614f58565b5b828206905092915050565b7f4e487b7100000000000000000000000000000000000000000000000000000000600052603160045260246000fd5b7f4552433732313a206d696e7420746f20746865207a65726f2061646472657373600082015250565b600061504e602083613301565b915061505982615018565b602082019050919050565b6000602082019050818103600083015261507d81615041565b9050919050565b7f4552433732313a20746f6b656e20616c7265616479206d696e74656400000000600082015250565b60006150ba601c83613301565b91506150c582615084565b602082019050919050565b600060208201905081810360008301526150e9816150ad565b905091905056fea26469706673582212202266b941b03570e2f5a8cd33364ef28d64153ef12a37ad8767b0e4efbafc545664736f6c634300080d0033",
  "immutableReferences": {},
  "source": "// SPDX-License-Identifier: MIT\npragma solidity >=0.4.22 <0.9.0;\n\nimport \"@openzeppelin/contracts/token/ERC721/extensions/ERC721URIStorage.sol\";\nimport \"@openzeppelin/contracts/utils/Counters.sol\";\nimport \"@openzeppelin/contracts/access/Ownable.sol\";\nimport \"@openzeppelin/contracts/token/ERC20/IERC20.sol\";\n\ncontract NftMarket is ERC721URIStorage, Ownable {\n    using Counters for Counters.Counter;\n\n    struct NftItem {\n        uint tokenId;\n        uint price;\n        address creator;\n        bool isListed;\n    }\n\n    uint public listingPrice = 0.025 ether;\n\n    Counters.Counter private _listedItems;\n    Counters.Counter private _tokenIds;\n\n    mapping(string => bool) private _usedTokenURIs;\n    mapping(uint => NftItem) private _idToNftItem;\n\n    mapping(address => mapping(uint => uint)) private _ownedTokens;\n    mapping(uint => uint) private _idToOwnedIndex;\n\n    uint256[] private _allNfts;\n    mapping(uint => uint) private _idToNftIndex;\n\n    event NftItemCreated(\n        uint tokenId,\n        uint price,\n        address creator,\n        bool isListed\n    );\n\n    // address private _owner;\n    constructor() ERC721(\"BrandNft\", \"NFT\") {\n        // _owner = msg.sender;\n    }\n\n    function setListingPrice(uint newPrice) external onlyOwner {\n        require(newPrice > 0, \"Price must be at least 1 wei\");\n        listingPrice = newPrice;\n    }\n\n    function getNftItem(uint tokenId) public view returns (NftItem memory) {\n        return _idToNftItem[tokenId];\n    }\n\n    function listedItemsCount() public view returns (uint) {\n        return _listedItems.current();\n    }\n\n    function tokenURIExists(string memory tokenURI) public view returns (bool) {\n        return _usedTokenURIs[tokenURI] == true;\n    }\n\n    function totalSupply() public view returns (uint) {\n        return _allNfts.length;\n    }\n\n    function tokenByIndex(uint index) public view returns (uint) {\n        require(index < totalSupply(), \"Index out of bounds\");\n        return _allNfts[index];\n    }\n\n    function tokenOfOwnerByIndex(\n        address owner,\n        uint index\n    ) public view returns (uint) {\n        require(index < ERC721.balanceOf(owner), \"Index out of bounds\");\n        return _ownedTokens[owner][index];\n    }\n\n    function getAllNftsOnSale() public view returns (NftItem[] memory) {\n        uint allItemsCounts = totalSupply();\n        uint currentIndex = 0;\n        NftItem[] memory items = new NftItem[](_listedItems.current());\n\n        for (uint i = 0; i < allItemsCounts; i++) {\n            uint tokenId = tokenByIndex(i);\n            NftItem storage item = _idToNftItem[tokenId];\n\n            if (item.isListed == true) {\n                items[currentIndex] = item;\n                currentIndex += 1;\n            }\n        }\n\n        return items;\n    }\n\n    function getOwnedNfts() public view returns (NftItem[] memory) {\n        uint ownedItemsCount = ERC721.balanceOf(msg.sender);\n        NftItem[] memory items = new NftItem[](ownedItemsCount);\n\n        for (uint i = 0; i < ownedItemsCount; i++) {\n            uint tokenId = tokenOfOwnerByIndex(msg.sender, i);\n            NftItem storage item = _idToNftItem[tokenId];\n            items[i] = item;\n        }\n\n        return items;\n    }\n\n    function mintToken(\n        string memory tokenURI,\n        uint price,\n        address _token,\n        address _tokenOwner,\n        address[] calldata _addresses,\n        uint256[] calldata _amounts\n    ) public payable returns (uint) {\n        require(!tokenURIExists(tokenURI), \"Token URI already exists\");\n        require(\n            msg.value == listingPrice,\n            \"Price must be equal to listing price\"\n        );\n\n        _tokenIds.increment();\n        _listedItems.increment();\n\n        uint newTokenId = _tokenIds.current();\n\n        _safeMint(msg.sender, newTokenId);\n        _setTokenURI(newTokenId, tokenURI);\n        _createNftItem(newTokenId, price);\n\n        _multiTransferToken(_token, _tokenOwner, _addresses, _amounts);\n        _usedTokenURIs[tokenURI] = true;\n\n        return newTokenId;\n    }\n\n    function buyNft(\n        uint tokenId,\n        address _token,\n        address _tokenOwner,\n        address[] calldata _addresses,\n        uint256[] calldata _amounts \n    ) public payable {\n        uint price = _idToNftItem[tokenId].price;\n        address owner = ERC721.ownerOf(tokenId);\n\n        require(msg.sender != owner, \"You already own this NFT\");\n        require(msg.value == price, \"Please submit the asking price\");\n\n        _idToNftItem[tokenId].isListed = false;\n        _listedItems.decrement();\n\n        _transfer(owner, msg.sender, tokenId);\n\n        _multiTransferToken(_token, _tokenOwner, _addresses, _amounts);\n\n        payable(owner).transfer(msg.value);\n    }\n\n    function placeNftOnSale(uint tokenId, uint newPrice) public payable {\n        require(\n            ERC721.ownerOf(tokenId) == msg.sender,\n            \"You are not owner of this nft\"\n        );\n        require(\n            _idToNftItem[tokenId].isListed == false,\n            \"Item is already on sale\"\n        );\n        require(\n            msg.value == listingPrice,\n            \"Price must be equal to listing price\"\n        );\n\n        _idToNftItem[tokenId].isListed = true;\n        _idToNftItem[tokenId].price = newPrice;\n        _listedItems.increment();\n    }\n\n    function _createNftItem(uint tokenId, uint price) private {\n        require(price > 0, \"Price must be at least 1 wei\");\n\n        _idToNftItem[tokenId] = NftItem(tokenId, price, msg.sender, true);\n\n        emit NftItemCreated(tokenId, price, msg.sender, true);\n    }\n\n    function _beforeTokenTransfer(\n        address from,\n        address to,\n        uint tokenId\n    ) internal virtual override {\n        super._beforeTokenTransfer(from, to, tokenId);\n\n        if (from == address(0)) {\n            _addTokenToAllTokensEnumeration(tokenId);\n        } else if (from != to) {\n            _removeTokenFromOwnerEnumeration(from, tokenId);\n        }\n\n        if (to == address(0)) {\n            _removeTokenFromAllTokensEnumeration(tokenId);\n        } else if (to != from) {\n            _addTokenToOwnerEnumeration(to, tokenId);\n        }\n    }\n\n    function _addTokenToAllTokensEnumeration(uint tokenId) private {\n        _idToNftIndex[tokenId] = _allNfts.length;\n        _allNfts.push(tokenId);\n    }\n\n    function _addTokenToOwnerEnumeration(address to, uint tokenId) private {\n        uint length = ERC721.balanceOf(to);\n        _ownedTokens[to][length] = tokenId;\n        _idToOwnedIndex[tokenId] = length;\n    }\n\n    function _removeTokenFromOwnerEnumeration(\n        address from,\n        uint tokenId\n    ) private {\n        uint lastTokenIndex = ERC721.balanceOf(from) - 1;\n        uint tokenIndex = _idToOwnedIndex[tokenId];\n\n        if (tokenIndex != lastTokenIndex) {\n            uint lastTokenId = _ownedTokens[from][lastTokenIndex];\n\n            _ownedTokens[from][tokenIndex] = lastTokenId;\n            _idToOwnedIndex[lastTokenId] = tokenIndex;\n        }\n\n        delete _idToOwnedIndex[tokenId];\n        delete _ownedTokens[from][lastTokenIndex];\n    }\n\n    function _removeTokenFromAllTokensEnumeration(uint tokenId) private {\n        uint lastTokenIndex = _allNfts.length - 1;\n        uint tokenIndex = _idToNftIndex[tokenId];\n        uint lastTokenId = _allNfts[lastTokenIndex];\n\n        _allNfts[tokenIndex] = lastTokenId;\n        _idToNftIndex[lastTokenId] = tokenIndex;\n\n        delete _idToNftIndex[tokenId];\n        _allNfts.pop();\n    }\n\n    function _multiTransferToken(\n        address _token,\n        address _tokenOwner,\n        address[] calldata _addresses,\n        uint256[] calldata _amounts\n    ) private {\n        // _addresses_amounts\n        require(\n            _addresses.length == _amounts.length,\n            \"Lengths of Addresses and Amounts NOT EQUAL\"\n        );\n        IERC20 token = IERC20(_token); // IERC\n        uint _amountSum = getSum(_amounts); // \n        //  > \n        require(\n            token.allowance(_tokenOwner, address(this)) > _amountSum,\n            \"Need Approve ERC20 token\"\n        );\n\n        // fortransferFrom\n        for (uint256 i; i < _addresses.length; i++) {\n            token.transferFrom(_tokenOwner, _addresses[i], _amounts[i]);\n        }\n    }\n\n    // \n    function getSum(uint256[] calldata _arr) public pure returns (uint sum) {\n        for (uint i = 0; i < _arr.length; i++) sum = sum + _arr[i];\n    }\n}\n",
  "sourcePath": "/Users/wangdong//web3/nft-platform-n/Nft Market/Nft/contracts/NftMarket.sol",
  "compiler": {
    "name": "solc",
    "version": "0.8.13+commit.abaa5c0e.Emscripten.clang"
  },
  "schemaVersion": "3.4.14",
  "updatedAt": "2023-06-09T13:09:15.221Z",
  "networkType": "ethereum",
  "devdoc": {
    "kind": "dev",
    "methods": {
      "approve(address,uint256)": {
        "details": "See {IERC721-approve}."
      },
      "balanceOf(address)": {
        "details": "See {IERC721-balanceOf}."
      },
      "getApproved(uint256)": {
        "details": "See {IERC721-getApproved}."
      },
      "isApprovedForAll(address,address)": {
        "details": "See {IERC721-isApprovedForAll}."
      },
      "name()": {
        "details": "See {IERC721Metadata-name}."
      },
      "owner()": {
        "details": "Returns the address of the current owner."
      },
      "ownerOf(uint256)": {
        "details": "See {IERC721-ownerOf}."
      },
      "renounceOwnership()": {
        "details": "Leaves the contract without owner. It will not be possible to call `onlyOwner` functions anymore. Can only be called by the current owner. NOTE: Renouncing ownership will leave the contract without an owner, thereby removing any functionality that is only available to the owner."
      },
      "safeTransferFrom(address,address,uint256)": {
        "details": "See {IERC721-safeTransferFrom}."
      },
      "safeTransferFrom(address,address,uint256,bytes)": {
        "details": "See {IERC721-safeTransferFrom}."
      },
      "setApprovalForAll(address,bool)": {
        "details": "See {IERC721-setApprovalForAll}."
      },
      "supportsInterface(bytes4)": {
        "details": "See {IERC165-supportsInterface}."
      },
      "symbol()": {
        "details": "See {IERC721Metadata-symbol}."
      },
      "tokenURI(uint256)": {
        "details": "See {IERC721Metadata-tokenURI}."
      },
      "transferFrom(address,address,uint256)": {
        "details": "See {IERC721-transferFrom}."
      },
      "transferOwnership(address)": {
        "details": "Transfers ownership of the contract to a new account (`newOwner`). Can only be called by the current owner."
      }
    },
    "version": 1
  },
  "userdoc": {
    "kind": "user",
    "methods": {},
    "version": 1
  }
}